{
  "contractName": "Athlete",
  "abi": [
    {
      "inputs": [
        {
          "internalType": "string",
          "name": "_name",
          "type": "string"
        },
        {
          "internalType": "string",
          "name": "_symbol",
          "type": "string"
        },
        {
          "internalType": "string",
          "name": "_initBaseURI",
          "type": "string"
        }
      ],
      "stateMutability": "nonpayable",
      "type": "constructor"
    },
    {
      "anonymous": false,
      "inputs": [
        {
          "indexed": true,
          "internalType": "address",
          "name": "owner",
          "type": "address"
        },
        {
          "indexed": true,
          "internalType": "address",
          "name": "approved",
          "type": "address"
        },
        {
          "indexed": true,
          "internalType": "uint256",
          "name": "tokenId",
          "type": "uint256"
        }
      ],
      "name": "Approval",
      "type": "event"
    },
    {
      "anonymous": false,
      "inputs": [
        {
          "indexed": true,
          "internalType": "address",
          "name": "owner",
          "type": "address"
        },
        {
          "indexed": true,
          "internalType": "address",
          "name": "operator",
          "type": "address"
        },
        {
          "indexed": false,
          "internalType": "bool",
          "name": "approved",
          "type": "bool"
        }
      ],
      "name": "ApprovalForAll",
      "type": "event"
    },
    {
      "anonymous": false,
      "inputs": [
        {
          "indexed": true,
          "internalType": "address",
          "name": "previousOwner",
          "type": "address"
        },
        {
          "indexed": true,
          "internalType": "address",
          "name": "newOwner",
          "type": "address"
        }
      ],
      "name": "OwnershipTransferred",
      "type": "event"
    },
    {
      "anonymous": false,
      "inputs": [
        {
          "indexed": false,
          "internalType": "address",
          "name": "account",
          "type": "address"
        }
      ],
      "name": "Paused",
      "type": "event"
    },
    {
      "anonymous": false,
      "inputs": [
        {
          "indexed": true,
          "internalType": "address",
          "name": "from",
          "type": "address"
        },
        {
          "indexed": true,
          "internalType": "address",
          "name": "to",
          "type": "address"
        },
        {
          "indexed": true,
          "internalType": "uint256",
          "name": "tokenId",
          "type": "uint256"
        }
      ],
      "name": "Transfer",
      "type": "event"
    },
    {
      "anonymous": false,
      "inputs": [
        {
          "indexed": false,
          "internalType": "address",
          "name": "account",
          "type": "address"
        }
      ],
      "name": "Unpaused",
      "type": "event"
    },
    {
      "anonymous": false,
      "inputs": [
        {
          "indexed": false,
          "internalType": "string",
          "name": "_paused",
          "type": "string"
        }
      ],
      "name": "contractIsPaused",
      "type": "event"
    },
    {
      "anonymous": false,
      "inputs": [
        {
          "indexed": false,
          "internalType": "string",
          "name": "_unPaused",
          "type": "string"
        }
      ],
      "name": "contractIsUnPaused",
      "type": "event"
    },
    {
      "anonymous": false,
      "inputs": [
        {
          "indexed": false,
          "internalType": "address",
          "name": "_adr",
          "type": "address"
        },
        {
          "indexed": false,
          "internalType": "string",
          "name": "_event",
          "type": "string"
        }
      ],
      "name": "insufficientFunds",
      "type": "event"
    },
    {
      "anonymous": false,
      "inputs": [
        {
          "indexed": false,
          "internalType": "address",
          "name": "_adr",
          "type": "address"
        },
        {
          "indexed": false,
          "internalType": "string",
          "name": "_message",
          "type": "string"
        }
      ],
      "name": "invalidMindAmount",
      "type": "event"
    },
    {
      "anonymous": false,
      "inputs": [
        {
          "indexed": false,
          "internalType": "address",
          "name": "_adr",
          "type": "address"
        },
        {
          "indexed": false,
          "internalType": "uint256",
          "name": "_value",
          "type": "uint256"
        }
      ],
      "name": "itHasMinted",
      "type": "event"
    },
    {
      "anonymous": false,
      "inputs": [
        {
          "indexed": false,
          "internalType": "address",
          "name": "_adr",
          "type": "address"
        },
        {
          "indexed": false,
          "internalType": "string",
          "name": "_message",
          "type": "string"
        }
      ],
      "name": "maxMintAmountReached",
      "type": "event"
    },
    {
      "anonymous": false,
      "inputs": [
        {
          "indexed": false,
          "internalType": "address",
          "name": "_adr",
          "type": "address"
        },
        {
          "indexed": false,
          "internalType": "string",
          "name": "_message",
          "type": "string"
        }
      ],
      "name": "mintLimitExceeded",
      "type": "event"
    },
    {
      "anonymous": false,
      "inputs": [
        {
          "indexed": false,
          "internalType": "address",
          "name": "_adr",
          "type": "address"
        },
        {
          "indexed": false,
          "internalType": "string",
          "name": "_message",
          "type": "string"
        }
      ],
      "name": "notInTheWhiteList",
      "type": "event"
    },
    {
      "stateMutability": "payable",
      "type": "fallback"
    },
    {
      "inputs": [
        {
          "internalType": "address",
          "name": "",
          "type": "address"
        }
      ],
      "name": "addressMintedBalance",
      "outputs": [
        {
          "internalType": "uint256",
          "name": "",
          "type": "uint256"
        }
      ],
      "stateMutability": "view",
      "type": "function"
    },
    {
      "inputs": [
        {
          "internalType": "address",
          "name": "to",
          "type": "address"
        },
        {
          "internalType": "uint256",
          "name": "tokenId",
          "type": "uint256"
        }
      ],
      "name": "approve",
      "outputs": [],
      "stateMutability": "nonpayable",
      "type": "function"
    },
    {
      "inputs": [
        {
          "internalType": "address",
          "name": "owner",
          "type": "address"
        }
      ],
      "name": "balanceOf",
      "outputs": [
        {
          "internalType": "uint256",
          "name": "",
          "type": "uint256"
        }
      ],
      "stateMutability": "view",
      "type": "function"
    },
    {
      "inputs": [],
      "name": "cost",
      "outputs": [
        {
          "internalType": "uint256",
          "name": "",
          "type": "uint256"
        }
      ],
      "stateMutability": "view",
      "type": "function"
    },
    {
      "inputs": [
        {
          "internalType": "uint256",
          "name": "tokenId",
          "type": "uint256"
        }
      ],
      "name": "getApproved",
      "outputs": [
        {
          "internalType": "address",
          "name": "",
          "type": "address"
        }
      ],
      "stateMutability": "view",
      "type": "function"
    },
    {
      "inputs": [],
      "name": "hiddenMetadataUri",
      "outputs": [
        {
          "internalType": "string",
          "name": "",
          "type": "string"
        }
      ],
      "stateMutability": "view",
      "type": "function"
    },
    {
      "inputs": [
        {
          "internalType": "address",
          "name": "owner",
          "type": "address"
        },
        {
          "internalType": "address",
          "name": "operator",
          "type": "address"
        }
      ],
      "name": "isApprovedForAll",
      "outputs": [
        {
          "internalType": "bool",
          "name": "",
          "type": "bool"
        }
      ],
      "stateMutability": "view",
      "type": "function"
    },
    {
      "inputs": [],
      "name": "limitSupply",
      "outputs": [
        {
          "internalType": "uint256",
          "name": "",
          "type": "uint256"
        }
      ],
      "stateMutability": "view",
      "type": "function"
    },
    {
      "inputs": [],
      "name": "maxMintAmountPerTx",
      "outputs": [
        {
          "internalType": "uint256",
          "name": "",
          "type": "uint256"
        }
      ],
      "stateMutability": "view",
      "type": "function"
    },
    {
      "inputs": [],
      "name": "maxSupply",
      "outputs": [
        {
          "internalType": "uint256",
          "name": "",
          "type": "uint256"
        }
      ],
      "stateMutability": "view",
      "type": "function"
    },
    {
      "inputs": [],
      "name": "name",
      "outputs": [
        {
          "internalType": "string",
          "name": "",
          "type": "string"
        }
      ],
      "stateMutability": "view",
      "type": "function"
    },
    {
      "inputs": [],
      "name": "nftPerAddressLimit",
      "outputs": [
        {
          "internalType": "uint256",
          "name": "",
          "type": "uint256"
        }
      ],
      "stateMutability": "view",
      "type": "function"
    },
    {
      "inputs": [],
      "name": "onlyWhitelisted",
      "outputs": [
        {
          "internalType": "bool",
          "name": "",
          "type": "bool"
        }
      ],
      "stateMutability": "view",
      "type": "function"
    },
    {
      "inputs": [],
      "name": "owner",
      "outputs": [
        {
          "internalType": "address",
          "name": "",
          "type": "address"
        }
      ],
      "stateMutability": "view",
      "type": "function"
    },
    {
      "inputs": [
        {
          "internalType": "uint256",
          "name": "tokenId",
          "type": "uint256"
        }
      ],
      "name": "ownerOf",
      "outputs": [
        {
          "internalType": "address",
          "name": "",
          "type": "address"
        }
      ],
      "stateMutability": "view",
      "type": "function"
    },
    {
      "inputs": [],
      "name": "paused",
      "outputs": [
        {
          "internalType": "bool",
          "name": "",
          "type": "bool"
        }
      ],
      "stateMutability": "view",
      "type": "function"
    },
    {
      "inputs": [],
      "name": "renounceOwnership",
      "outputs": [],
      "stateMutability": "nonpayable",
      "type": "function"
    },
    {
      "inputs": [
        {
          "internalType": "address",
          "name": "from",
          "type": "address"
        },
        {
          "internalType": "address",
          "name": "to",
          "type": "address"
        },
        {
          "internalType": "uint256",
          "name": "tokenId",
          "type": "uint256"
        }
      ],
      "name": "safeTransferFrom",
      "outputs": [],
      "stateMutability": "nonpayable",
      "type": "function"
    },
    {
      "inputs": [
        {
          "internalType": "address",
          "name": "from",
          "type": "address"
        },
        {
          "internalType": "address",
          "name": "to",
          "type": "address"
        },
        {
          "internalType": "uint256",
          "name": "tokenId",
          "type": "uint256"
        },
        {
          "internalType": "bytes",
          "name": "data",
          "type": "bytes"
        }
      ],
      "name": "safeTransferFrom",
      "outputs": [],
      "stateMutability": "nonpayable",
      "type": "function"
    },
    {
      "inputs": [
        {
          "internalType": "address",
          "name": "operator",
          "type": "address"
        },
        {
          "internalType": "bool",
          "name": "approved",
          "type": "bool"
        }
      ],
      "name": "setApprovalForAll",
      "outputs": [],
      "stateMutability": "nonpayable",
      "type": "function"
    },
    {
      "inputs": [
        {
          "internalType": "bytes4",
          "name": "interfaceId",
          "type": "bytes4"
        }
      ],
      "name": "supportsInterface",
      "outputs": [
        {
          "internalType": "bool",
          "name": "",
          "type": "bool"
        }
      ],
      "stateMutability": "view",
      "type": "function"
    },
    {
      "inputs": [],
      "name": "symbol",
      "outputs": [
        {
          "internalType": "string",
          "name": "",
          "type": "string"
        }
      ],
      "stateMutability": "view",
      "type": "function"
    },
    {
      "inputs": [
        {
          "internalType": "address",
          "name": "from",
          "type": "address"
        },
        {
          "internalType": "address",
          "name": "to",
          "type": "address"
        },
        {
          "internalType": "uint256",
          "name": "tokenId",
          "type": "uint256"
        }
      ],
      "name": "transferFrom",
      "outputs": [],
      "stateMutability": "nonpayable",
      "type": "function"
    },
    {
      "inputs": [
        {
          "internalType": "address",
          "name": "newOwner",
          "type": "address"
        }
      ],
      "name": "transferOwnership",
      "outputs": [],
      "stateMutability": "nonpayable",
      "type": "function"
    },
    {
      "inputs": [],
      "name": "uriPrefix",
      "outputs": [
        {
          "internalType": "string",
          "name": "",
          "type": "string"
        }
      ],
      "stateMutability": "view",
      "type": "function"
    },
    {
      "inputs": [],
      "name": "uriSuffix",
      "outputs": [
        {
          "internalType": "string",
          "name": "",
          "type": "string"
        }
      ],
      "stateMutability": "view",
      "type": "function"
    },
    {
      "inputs": [
        {
          "internalType": "address",
          "name": "",
          "type": "address"
        }
      ],
      "name": "whitelisted",
      "outputs": [
        {
          "internalType": "bool",
          "name": "",
          "type": "bool"
        }
      ],
      "stateMutability": "view",
      "type": "function"
    },
    {
      "stateMutability": "payable",
      "type": "receive"
    },
    {
      "inputs": [
        {
          "internalType": "uint256",
          "name": "_mintAmount",
          "type": "uint256"
        }
      ],
      "name": "mint",
      "outputs": [],
      "stateMutability": "payable",
      "type": "function"
    },
    {
      "inputs": [
        {
          "internalType": "uint256",
          "name": "_mintAmount",
          "type": "uint256"
        },
        {
          "internalType": "address",
          "name": "_receiver",
          "type": "address"
        }
      ],
      "name": "mintForOneAddress",
      "outputs": [],
      "stateMutability": "nonpayable",
      "type": "function"
    },
    {
      "inputs": [
        {
          "internalType": "uint256",
          "name": "_mintAmount",
          "type": "uint256"
        },
        {
          "internalType": "address[]",
          "name": "_receivers",
          "type": "address[]"
        }
      ],
      "name": "mintForMultipleAddresses",
      "outputs": [],
      "stateMutability": "nonpayable",
      "type": "function"
    },
    {
      "inputs": [
        {
          "internalType": "address",
          "name": "_addr",
          "type": "address"
        }
      ],
      "name": "addToWhiteList",
      "outputs": [],
      "stateMutability": "nonpayable",
      "type": "function"
    },
    {
      "inputs": [
        {
          "internalType": "address[]",
          "name": "_addrs",
          "type": "address[]"
        }
      ],
      "name": "addAMultipleAddressesToWhiteList",
      "outputs": [],
      "stateMutability": "nonpayable",
      "type": "function"
    },
    {
      "inputs": [],
      "name": "whiteListOn",
      "outputs": [],
      "stateMutability": "nonpayable",
      "type": "function"
    },
    {
      "inputs": [],
      "name": "whiteListOff",
      "outputs": [],
      "stateMutability": "nonpayable",
      "type": "function"
    },
    {
      "inputs": [],
      "name": "isItpaused",
      "outputs": [
        {
          "internalType": "bool",
          "name": "",
          "type": "bool"
        }
      ],
      "stateMutability": "view",
      "type": "function"
    },
    {
      "inputs": [
        {
          "internalType": "address",
          "name": "_addr",
          "type": "address"
        }
      ],
      "name": "checkAddressIsWhiteListed",
      "outputs": [
        {
          "internalType": "bool",
          "name": "",
          "type": "bool"
        }
      ],
      "stateMutability": "view",
      "type": "function"
    },
    {
      "inputs": [],
      "name": "getNFTBalance",
      "outputs": [
        {
          "internalType": "uint256",
          "name": "",
          "type": "uint256"
        }
      ],
      "stateMutability": "view",
      "type": "function"
    },
    {
      "inputs": [],
      "name": "getBalance",
      "outputs": [
        {
          "internalType": "uint256",
          "name": "",
          "type": "uint256"
        }
      ],
      "stateMutability": "view",
      "type": "function"
    },
    {
      "inputs": [],
      "name": "getMyNFTBalance",
      "outputs": [
        {
          "internalType": "uint256",
          "name": "",
          "type": "uint256"
        }
      ],
      "stateMutability": "view",
      "type": "function"
    },
    {
      "inputs": [
        {
          "internalType": "address",
          "name": "_addr",
          "type": "address"
        }
      ],
      "name": "getNFTBalanceByAddress",
      "outputs": [
        {
          "internalType": "uint256",
          "name": "",
          "type": "uint256"
        }
      ],
      "stateMutability": "view",
      "type": "function"
    },
    {
      "inputs": [
        {
          "internalType": "uint256",
          "name": "_tokenId",
          "type": "uint256"
        }
      ],
      "name": "tokenURI",
      "outputs": [
        {
          "internalType": "string",
          "name": "",
          "type": "string"
        }
      ],
      "stateMutability": "view",
      "type": "function"
    },
    {
      "inputs": [],
      "name": "pause",
      "outputs": [],
      "stateMutability": "nonpayable",
      "type": "function"
    },
    {
      "inputs": [],
      "name": "unpause",
      "outputs": [],
      "stateMutability": "nonpayable",
      "type": "function"
    },
    {
      "inputs": [
        {
          "internalType": "uint256",
          "name": "_limit",
          "type": "uint256"
        }
      ],
      "name": "setNftPerAddressLimit",
      "outputs": [],
      "stateMutability": "nonpayable",
      "type": "function"
    },
    {
      "inputs": [
        {
          "internalType": "uint256",
          "name": "_limit",
          "type": "uint256"
        }
      ],
      "name": "setMaxMintAmountPerTx",
      "outputs": [],
      "stateMutability": "nonpayable",
      "type": "function"
    },
    {
      "inputs": [
        {
          "internalType": "uint256",
          "name": "_newCost",
          "type": "uint256"
        }
      ],
      "name": "setCost",
      "outputs": [],
      "stateMutability": "nonpayable",
      "type": "function"
    },
    {
      "inputs": [
        {
          "internalType": "uint256",
          "name": "_newMaxMintAmount",
          "type": "uint256"
        }
      ],
      "name": "setmaxMintAmount",
      "outputs": [],
      "stateMutability": "nonpayable",
      "type": "function"
    },
    {
      "inputs": [
        {
          "internalType": "string",
          "name": "_newBaseURI",
          "type": "string"
        }
      ],
      "name": "setBaseURI",
      "outputs": [],
      "stateMutability": "nonpayable",
      "type": "function"
    },
    {
      "inputs": [
        {
          "internalType": "string",
          "name": "_newBaseExtension",
          "type": "string"
        }
      ],
      "name": "setBaseExtension",
      "outputs": [],
      "stateMutability": "nonpayable",
      "type": "function"
    },
    {
      "inputs": [],
      "name": "withdrawAll",
      "outputs": [],
      "stateMutability": "payable",
      "type": "function"
    }
  ],
  "bytecode": "0x608060405260405180602001604052806000815250600a90805190602001906200002b92919062000554565b506040518060400160405280600581526020017f2e6a736f6e000000000000000000000000000000000000000000000000000000815250600b90805190602001906200007992919062000554565b5060405180602001604052806000815250600c9080519060200190620000a192919062000554565b50670de0b6b3a7640000600d55612710600e556032600f55606460105560006011556000601260006101000a81548160ff021916908315150217905550348015620000eb57600080fd5b506040516200570d3803806200570d833981810160405281019062000111919062000676565b828281600090805190602001906200012b92919062000554565b5080600190805190602001906200014492919062000554565b50505062000179620001646200021d640100000000026401000000009004565b62000225640100000000026401000000009004565b60016007819055506000600860006101000a81548160ff0219169083151502179055506000601460003373ffffffffffffffffffffffffffffffffffffffff1673ffffffffffffffffffffffffffffffffffffffff16815260200190815260200160002081905550620001fb81620002eb640100000000026401000000009004565b6200021462000320640100000000026401000000009004565b50505062000a50565b600033905090565b6000600660009054906101000a900473ffffffffffffffffffffffffffffffffffffffff16905081600660006101000a81548173ffffffffffffffffffffffffffffffffffffffff021916908373ffffffffffffffffffffffffffffffffffffffff1602179055508173ffffffffffffffffffffffffffffffffffffffff168173ffffffffffffffffffffffffffffffffffffffff167f8be0079c531659141344cd1fd0a4f28419497f9722a3daafe3b4186f6b6457e060405160405180910390a35050565b620003046200038b640100000000026401000000009004565b80600a90805190602001906200031c92919062000554565b5050565b620003396200038b640100000000026401000000009004565b620003526200042e640100000000026401000000009004565b7f28f248c7ec421e96b0412894fe39056f04f89181e681f13c853cd7e6442c1af06040516200038190620007ba565b60405180910390a1565b620003a46200021d640100000000026401000000009004565b73ffffffffffffffffffffffffffffffffffffffff16620003d3620004b5640100000000026401000000009004565b73ffffffffffffffffffffffffffffffffffffffff16146200042c576040517f08c379a00000000000000000000000000000000000000000000000000000000081526004016200042390620007fe565b60405180910390fd5b565b62000447620004df640100000000026401000000009004565b6001600860006101000a81548160ff0219169083151502179055507f62e78cea01bee320cd4e420270b5ea74000d11b0c9f74754ebdbfc544b05a2586200049c6200021d640100000000026401000000009004565b604051620004ab91906200079d565b60405180910390a1565b6000600660009054906101000a900473ffffffffffffffffffffffffffffffffffffffff16905090565b620004f86200053d640100000000026401000000009004565b156200053b576040517f08c379a00000000000000000000000000000000000000000000000000000000081526004016200053290620007dc565b60405180910390fd5b565b6000600860009054906101000a900460ff16905090565b8280546200056290620008fa565b90600052602060002090601f016020900481019282620005865760008555620005d2565b82601f10620005a157805160ff1916838001178555620005d2565b82800160010185558215620005d2579182015b82811115620005d1578251825591602001919060010190620005b4565b5b509050620005e19190620005e5565b5090565b5b8082111562000600576000816000905550600101620005e6565b5090565b60006200061b620006158462000849565b62000820565b9050828152602081018484840111156200063457600080fd5b62000641848285620008c4565b509392505050565b600082601f8301126200065b57600080fd5b81516200066d84826020860162000604565b91505092915050565b6000806000606084860312156200068c57600080fd5b600084015167ffffffffffffffff811115620006a757600080fd5b620006b58682870162000649565b935050602084015167ffffffffffffffff811115620006d357600080fd5b620006e18682870162000649565b925050604084015167ffffffffffffffff811115620006ff57600080fd5b6200070d8682870162000649565b9150509250925092565b620007228162000890565b82525050565b600062000737601a836200087f565b91506200074482620009d5565b602082019050919050565b60006200075e6010836200087f565b91506200076b82620009fe565b602082019050919050565b6000620007856020836200087f565b9150620007928262000a27565b602082019050919050565b6000602082019050620007b4600083018462000717565b92915050565b60006020820190508181036000830152620007d58162000728565b9050919050565b60006020820190508181036000830152620007f7816200074f565b9050919050565b60006020820190508181036000830152620008198162000776565b9050919050565b60006200082c6200083f565b90506200083a828262000930565b919050565b6000604051905090565b600067ffffffffffffffff82111562000867576200086662000995565b5b6200087282620009c4565b9050602081019050919050565b600082825260208201905092915050565b60006200089d82620008a4565b9050919050565b600073ffffffffffffffffffffffffffffffffffffffff82169050919050565b60005b83811015620008e4578082015181840152602081019050620008c7565b83811115620008f4576000848401525b50505050565b600060028204905060018216806200091357607f821691505b602082108114156200092a576200092962000966565b5b50919050565b6200093b82620009c4565b810181811067ffffffffffffffff821117156200095d576200095c62000995565b5b80604052505050565b7f4e487b7100000000000000000000000000000000000000000000000000000000600052602260045260246000fd5b7f4e487b7100000000000000000000000000000000000000000000000000000000600052604160045260246000fd5b6000601f19601f8301169050919050565b7f436f6e74726163742069732073657420746f2050617573652021000000000000600082015250565b7f5061757361626c653a2070617573656400000000000000000000000000000000600082015250565b7f4f776e61626c653a2063616c6c6572206973206e6f7420746865206f776e6572600082015250565b614cad8062000a606000396000f3fe6080604052600436106102ea576000357c010000000000000000000000000000000000000000000000000000000090048063784fa4c811610192578063a45ba8e7116100f9578063d0eb26b0116100b2578063da3ef23f1161008c578063da3ef23f14610ab3578063e985e9c514610adc578063f2fde38b14610b19578063fd11e6d214610b42576102f1565b8063d0eb26b014610a22578063d5abeb0114610a4b578063d936547e14610a76576102f1565b8063a45ba8e714610912578063b071401b1461093d578063b88d4fde14610966578063b9f528dc1461098f578063ba7d2c76146109ba578063c87b56dd146109e5576102f1565b806391f85b371161014b57806391f85b371461080f57806394354fd01461084c57806395d89b41146108775780639c70b512146108a2578063a0712d68146108cd578063a22cb465146108e9576102f1565b8063784fa4c8146107345780637f00c7a6146107715780638456cb591461079a578063853828b6146107b157806389c886a5146107bb5780638da5cb5b146107e4576102f1565b80633615a14e116102515780635503a0e81161020a57806362b99ad4116101e457806362b99ad4146106785780636352211e146106a357806370a08231146106e0578063715018a61461071d576102f1565b80635503a0e8146105f957806355f804b3146106245780635c975abb1461064d576102f1565b80633615a14e146105155780633f4ba83a1461053e57806342842e0e1461055557806344a0d68a1461057e57806347ee0394146105a757806352823ec6146105d0576102f1565b806313faede6116102a357806313faede61461041757806318cae2691461044257806323b872dd1461047f5780632ddcb21f146104a8578063319f5343146104d35780633279a45f146104fe576102f1565b806301ffc9a7146102f357806306fdde0314610330578063081812fc1461035b578063095ea7b31461039857806311413843146103c157806312065fe0146103ec576102f1565b366102f157005b005b3480156102ff57600080fd5b5061031a600480360381019061031591906136f9565b610b59565b6040516103279190613ede565b60405180910390f35b34801561033c57600080fd5b50610345610c3b565b6040516103529190613ef9565b60405180910390f35b34801561036757600080fd5b50610382600480360381019061037d919061378c565b610ccd565b60405161038f9190613d68565b60405180910390f35b3480156103a457600080fd5b506103bf60048036038101906103ba919061367c565b610d13565b005b3480156103cd57600080fd5b506103d6610e2b565b6040516103e3919061421b565b60405180910390f35b3480156103f857600080fd5b50610401610e3c565b60405161040e919061421b565b60405180910390f35b34801561042357600080fd5b5061042c610e63565b604051610439919061421b565b60405180910390f35b34801561044e57600080fd5b5061046960048036038101906104649190613511565b610e69565b604051610476919061421b565b60405180910390f35b34801561048b57600080fd5b506104a660048036038101906104a19190613576565b610e81565b005b3480156104b457600080fd5b506104bd610ee1565b6040516104ca919061421b565b60405180910390f35b3480156104df57600080fd5b506104e8610ee7565b6040516104f59190613ede565b60405180910390f35b34801561050a57600080fd5b50610513610ef6565b005b34801561052157600080fd5b5061053c600480360381019061053791906137b5565b610f1b565b005b34801561054a57600080fd5b506105536110e3565b005b34801561056157600080fd5b5061057c60048036038101906105779190613576565b61112a565b005b34801561058a57600080fd5b506105a560048036038101906105a0919061378c565b61114a565b005b3480156105b357600080fd5b506105ce60048036038101906105c99190613511565b61115c565b005b3480156105dc57600080fd5b506105f760048036038101906105f291906137f1565b6111bf565b005b34801561060557600080fd5b5061060e6113e7565b60405161061b9190613ef9565b60405180910390f35b34801561063057600080fd5b5061064b6004803603810190610646919061374b565b611475565b005b34801561065957600080fd5b50610662611497565b60405161066f9190613ede565b60405180910390f35b34801561068457600080fd5b5061068d6114ae565b60405161069a9190613ef9565b60405180910390f35b3480156106af57600080fd5b506106ca60048036038101906106c5919061378c565b61153c565b6040516106d79190613d68565b60405180910390f35b3480156106ec57600080fd5b5061070760048036038101906107029190613511565b6115ee565b604051610714919061421b565b60405180910390f35b34801561072957600080fd5b506107326116a6565b005b34801561074057600080fd5b5061075b60048036038101906107569190613511565b6116ba565b6040516107689190613ede565b60405180910390f35b34801561077d57600080fd5b506107986004803603810190610793919061378c565b6116cc565b005b3480156107a657600080fd5b506107af6116de565b005b6107b9611725565b005b3480156107c757600080fd5b506107e260048036038101906107dd91906136b8565b6117c4565b005b3480156107f057600080fd5b506107f9611887565b6040516108069190613d68565b60405180910390f35b34801561081b57600080fd5b5061083660048036038101906108319190613511565b6118b1565b604051610843919061421b565b60405180910390f35b34801561085857600080fd5b506108616118fa565b60405161086e919061421b565b60405180910390f35b34801561088357600080fd5b5061088c611900565b6040516108999190613ef9565b60405180910390f35b3480156108ae57600080fd5b506108b7611992565b6040516108c49190613ede565b60405180910390f35b6108e760048036038101906108e2919061378c565b6119a5565b005b3480156108f557600080fd5b50610910600480360381019061090b9190613640565b611dd8565b005b34801561091e57600080fd5b50610927611dee565b6040516109349190613ef9565b60405180910390f35b34801561094957600080fd5b50610964600480360381019061095f919061378c565b611e7c565b005b34801561097257600080fd5b5061098d600480360381019061098891906135c5565b611e8e565b005b34801561099b57600080fd5b506109a4611ef0565b6040516109b1919061421b565b60405180910390f35b3480156109c657600080fd5b506109cf611f37565b6040516109dc919061421b565b60405180910390f35b3480156109f157600080fd5b50610a0c6004803603810190610a07919061378c565b611f3d565b604051610a199190613ef9565b60405180910390f35b348015610a2e57600080fd5b50610a496004803603810190610a44919061378c565b611fe7565b005b348015610a5757600080fd5b50610a60611ff9565b604051610a6d919061421b565b60405180910390f35b348015610a8257600080fd5b50610a9d6004803603810190610a989190613511565b611fff565b604051610aaa9190613ede565b60405180910390f35b348015610abf57600080fd5b50610ada6004803603810190610ad5919061374b565b61201f565b005b348015610ae857600080fd5b50610b036004803603810190610afe919061353a565b612041565b604051610b109190613ede565b60405180910390f35b348015610b2557600080fd5b50610b406004803603810190610b3b9190613511565b6120d5565b005b348015610b4e57600080fd5b50610b57612159565b005b60007f80ac58cd000000000000000000000000000000000000000000000000000000007bffffffffffffffffffffffffffffffffffffffffffffffffffffffff1916827bffffffffffffffffffffffffffffffffffffffffffffffffffffffff19161480610c2457507f5b5e139f000000000000000000000000000000000000000000000000000000007bffffffffffffffffffffffffffffffffffffffffffffffffffffffff1916827bffffffffffffffffffffffffffffffffffffffffffffffffffffffff1916145b80610c345750610c338261217e565b5b9050919050565b606060008054610c4a90614517565b80601f0160208091040260200160405190810160405280929190818152602001828054610c7690614517565b8015610cc35780601f10610c9857610100808354040283529160200191610cc3565b820191906000526020600020905b815481529060010190602001808311610ca657829003601f168201915b5050505050905090565b6000610cd8826121e8565b6004600083815260200190815260200160002060009054906101000a900473ffffffffffffffffffffffffffffffffffffffff169050919050565b6000610d1e8261153c565b90508073ffffffffffffffffffffffffffffffffffffffff168373ffffffffffffffffffffffffffffffffffffffff161415610d8f576040517f08c379a0000000000000000000000000000000000000000000000000000000008152600401610d869061419b565b60405180910390fd5b8073ffffffffffffffffffffffffffffffffffffffff16610dae612233565b73ffffffffffffffffffffffffffffffffffffffff161480610ddd5750610ddc81610dd7612233565b612041565b5b610e1c576040517f08c379a0000000000000000000000000000000000000000000000000000000008152600401610e13906140bb565b60405180910390fd5b610e26838361223b565b505050565b6000610e3760096122f4565b905090565b6000610e46612302565b3073ffffffffffffffffffffffffffffffffffffffff1631905090565b600d5481565b60146020528060005260406000206000915090505481565b610e92610e8c612233565b82612380565b610ed1576040517f08c379a0000000000000000000000000000000000000000000000000000000008152600401610ec8906141db565b60405180910390fd5b610edc838383612415565b505050565b60115481565b6000610ef1611497565b905090565b610efe612302565b6000601260006101000a81548160ff021916908315150217905550565b81610f24611497565b15610f64576040517f08c379a0000000000000000000000000000000000000000000000000000000008152600401610f5b90613f5b565b60405180910390fd5b600081118015610f765750600f548111155b610fb5576040517f08c379a0000000000000000000000000000000000000000000000000000000008152600401610fac90613fdb565b60405180910390fd5b600081118015610fc75750600f548111155b611003577fd517d195fb82e76cdcdd463af6831b6d695e9224bc308dd2050ad79da23cdd3533604051610ffa9190613dcf565b60405180910390a15b601154600e54611013919061442d565b8161101e60096122f4565b611028919061434c565b1115611069576040517f08c379a00000000000000000000000000000000000000000000000000000000081526004016110609061409b565b60405180910390fd5b601154600e54611079919061442d565b8161108460096122f4565b61108e919061434c565b11156110cc577f662bcdae78af2e7e1dcec0c41de805c440fc23ec153fa0a1e975e1faabc2fae5336040516110c39190613e2b565b60405180910390a15b6110d4612302565b6110de828461267c565b505050565b6110eb612302565b6110f36126f5565b7f2ea30c1e305aa59320dafe36b8a006bfcd8416198d33bee3e8a01f29d408f0606040516111209061415b565b60405180910390a1565b61114583838360405180602001604052806000815250611e8e565b505050565b611152612302565b80600d8190555050565b611164612302565b6001601360008373ffffffffffffffffffffffffffffffffffffffff1673ffffffffffffffffffffffffffffffffffffffff16815260200190815260200160002060006101000a81548160ff02191690831515021790555050565b816111c8611497565b15611208576040517f08c379a00000000000000000000000000000000000000000000000000000000081526004016111ff90613f5b565b60405180910390fd5b60008111801561121a5750600f548111155b611259576040517f08c379a000000000000000000000000000000000000000000000000000000000815260040161125090613fdb565b60405180910390fd5b60008111801561126b5750600f548111155b6112a7577fd517d195fb82e76cdcdd463af6831b6d695e9224bc308dd2050ad79da23cdd353360405161129e9190613dcf565b60405180910390a15b601154600e546112b7919061442d565b816112c260096122f4565b6112cc919061434c565b111561130d576040517f08c379a00000000000000000000000000000000000000000000000000000000081526004016113049061409b565b60405180910390fd5b601154600e5461131d919061442d565b8161132860096122f4565b611332919061434c565b1115611370577f662bcdae78af2e7e1dcec0c41de805c440fc23ec153fa0a1e975e1faabc2fae5336040516113679190613e2b565b60405180910390a15b611378612302565b60005b82518110156113e1576113ce8382815181106113c0577f4e487b7100000000000000000000000000000000000000000000000000000000600052603260045260246000fd5b60200260200101518561267c565b80806113d99061457a565b91505061137b565b50505050565b600b80546113f490614517565b80601f016020809104026020016040519081016040528092919081815260200182805461142090614517565b801561146d5780601f106114425761010080835404028352916020019161146d565b820191906000526020600020905b81548152906001019060200180831161145057829003601f168201915b505050505081565b61147d612302565b80600a908051906020019061149392919061329f565b5050565b6000600860009054906101000a900460ff16905090565b600a80546114bb90614517565b80601f01602080910402602001604051908101604052809291908181526020018280546114e790614517565b80156115345780601f1061150957610100808354040283529160200191611534565b820191906000526020600020905b81548152906001019060200180831161151757829003601f168201915b505050505081565b6000806002600084815260200190815260200160002060009054906101000a900473ffffffffffffffffffffffffffffffffffffffff169050600073ffffffffffffffffffffffffffffffffffffffff168173ffffffffffffffffffffffffffffffffffffffff1614156115e5576040517f08c379a00000000000000000000000000000000000000000000000000000000081526004016115dc9061417b565b60405180910390fd5b80915050919050565b60008073ffffffffffffffffffffffffffffffffffffffff168273ffffffffffffffffffffffffffffffffffffffff16141561165f576040517f08c379a00000000000000000000000000000000000000000000000000000000081526004016116569061407b565b60405180910390fd5b600360008373ffffffffffffffffffffffffffffffffffffffff1673ffffffffffffffffffffffffffffffffffffffff168152602001908152602001600020549050919050565b6116ae612302565b6116b86000612758565b565b60006116c58261281e565b9050919050565b6116d4612302565b8060118190555050565b6116e6612302565b6116ee6128b1565b7f28f248c7ec421e96b0412894fe39056f04f89181e681f13c853cd7e6442c1af060405161171b9061403b565b60405180910390a1565b61172d612302565b6000611737611887565b73ffffffffffffffffffffffffffffffffffffffff163073ffffffffffffffffffffffffffffffffffffffff163160405161177190613d53565b60006040518083038185875af1925050503d80600081146117ae576040519150601f19603f3d011682016040523d82523d6000602084013e6117b3565b606091505b50509050806117c157600080fd5b50565b6117cc612302565b60005b815181101561188357600160136000848481518110611817577f4e487b7100000000000000000000000000000000000000000000000000000000600052603260045260246000fd5b602002602001015173ffffffffffffffffffffffffffffffffffffffff1673ffffffffffffffffffffffffffffffffffffffff16815260200190815260200160002060006101000a81548160ff021916908315150217905550808061187b9061457a565b9150506117cf565b5050565b6000600660009054906101000a900473ffffffffffffffffffffffffffffffffffffffff16905090565b6000601460008373ffffffffffffffffffffffffffffffffffffffff1673ffffffffffffffffffffffffffffffffffffffff168152602001908152602001600020549050919050565b600f5481565b60606001805461190f90614517565b80601f016020809104026020016040519081016040528092919081815260200182805461193b90614517565b80156119885780601f1061195d57610100808354040283529160200191611988565b820191906000526020600020905b81548152906001019060200180831161196b57829003601f168201915b5050505050905090565b601260009054906101000a900460ff1681565b806119ae611497565b156119ee576040517f08c379a00000000000000000000000000000000000000000000000000000000081526004016119e590613f5b565b60405180910390fd5b600081118015611a005750600f548111155b611a3f576040517f08c379a0000000000000000000000000000000000000000000000000000000008152600401611a3690613fdb565b60405180910390fd5b600081118015611a515750600f548111155b611a8d577fd517d195fb82e76cdcdd463af6831b6d695e9224bc308dd2050ad79da23cdd3533604051611a849190613dcf565b60405180910390a15b601154600e54611a9d919061442d565b81611aa860096122f4565b611ab2919061434c565b1115611af3576040517f08c379a0000000000000000000000000000000000000000000000000000000008152600401611aea9061409b565b60405180910390fd5b601154600e54611b03919061442d565b81611b0e60096122f4565b611b18919061434c565b1115611b56577f662bcdae78af2e7e1dcec0c41de805c440fc23ec153fa0a1e975e1faabc2fae533604051611b4d9190613e2b565b60405180910390a15b611b5e611887565b73ffffffffffffffffffffffffffffffffffffffff163373ffffffffffffffffffffffffffffffffffffffff1614611dca5760011515601260009054906101000a900460ff1615151415611d2c5760011515611bb93361281e565b151514611bfb576040517f08c379a0000000000000000000000000000000000000000000000000000000008152600401611bf2906141fb565b60405180910390fd5b60011515611c083361281e565b1515151415611c49577f3a3121f9d9d8b29e8a3746760f5189193ae886a73a44b0e86a70a828fa0c622533604051611c409190613e87565b60405180910390a15b6000601460003373ffffffffffffffffffffffffffffffffffffffff1673ffffffffffffffffffffffffffffffffffffffff1681526020019081526020016000205490506010548382611c9c919061434c565b1115611cdd576040517f08c379a0000000000000000000000000000000000000000000000000000000008152600401611cd49061413b565b60405180910390fd5b6010548382611cec919061434c565b1115611d2a577ff311b196bb1750d6557091f98f5d9f1155c9d6fcf039089896a424626f9db46333604051611d219190613e59565b60405180910390a15b505b81600d54611d3a91906143d3565b341015611d7c576040517f08c379a0000000000000000000000000000000000000000000000000000000008152600401611d73906141bb565b60405180910390fd5b81600d54611d8a91906143d3565b341015611dc9577fd70eac9b43bacf126bf0f095ed2a31d2ae3e6fca6cb7742de90cd9adda95f87733604051611dc09190613dfd565b60405180910390a15b5b611dd4338361267c565b5050565b611dea611de3612233565b8383612914565b5050565b600c8054611dfb90614517565b80601f0160208091040260200160405190810160405280929190818152602001828054611e2790614517565b8015611e745780601f10611e4957610100808354040283529160200191611e74565b820191906000526020600020905b815481529060010190602001808311611e5757829003601f168201915b505050505081565b611e84612302565b80600f8190555050565b611e9f611e99612233565b83612380565b611ede576040517f08c379a0000000000000000000000000000000000000000000000000000000008152600401611ed5906141db565b60405180910390fd5b611eea84848484612a81565b50505050565b6000601460003373ffffffffffffffffffffffffffffffffffffffff1673ffffffffffffffffffffffffffffffffffffffff16815260200190815260200160002054905090565b60105481565b6060611f4882612add565b611f87576040517f08c379a0000000000000000000000000000000000000000000000000000000008152600401611f7e9061411b565b60405180910390fd5b6000611f91612b49565b90506000815111611fb15760405180602001604052806000815250611fdf565b80611fbb84612bdb565b600b604051602001611fcf93929190613d22565b6040516020818303038152906040525b915050919050565b611fef612302565b8060108190555050565b600e5481565b60136020528060005260406000206000915054906101000a900460ff1681565b612027612302565b80600b908051906020019061203d92919061329f565b5050565b6000600560008473ffffffffffffffffffffffffffffffffffffffff1673ffffffffffffffffffffffffffffffffffffffff16815260200190815260200160002060008373ffffffffffffffffffffffffffffffffffffffff1673ffffffffffffffffffffffffffffffffffffffff16815260200190815260200160002060009054906101000a900460ff16905092915050565b6120dd612302565b600073ffffffffffffffffffffffffffffffffffffffff168173ffffffffffffffffffffffffffffffffffffffff16141561214d576040517f08c379a000000000000000000000000000000000000000000000000000000000815260040161214490613f7b565b60405180910390fd5b61215681612758565b50565b612161612302565b6001601260006101000a81548160ff021916908315150217905550565b60007f01ffc9a7000000000000000000000000000000000000000000000000000000007bffffffffffffffffffffffffffffffffffffffffffffffffffffffff1916827bffffffffffffffffffffffffffffffffffffffffffffffffffffffff1916149050919050565b6121f181612add565b612230576040517f08c379a00000000000000000000000000000000000000000000000000000000081526004016122279061417b565b60405180910390fd5b50565b600033905090565b816004600083815260200190815260200160002060006101000a81548173ffffffffffffffffffffffffffffffffffffffff021916908373ffffffffffffffffffffffffffffffffffffffff160217905550808273ffffffffffffffffffffffffffffffffffffffff166122ae8361153c565b73ffffffffffffffffffffffffffffffffffffffff167f8c5be1e5ebec7d5bd14f71427d1e84f3dd0314c0f7b2291e5b200ac8c7c3b92560405160405180910390a45050565b600081600001549050919050565b61230a612233565b73ffffffffffffffffffffffffffffffffffffffff16612328611887565b73ffffffffffffffffffffffffffffffffffffffff161461237e576040517f08c379a0000000000000000000000000000000000000000000000000000000008152600401612375906140fb565b60405180910390fd5b565b60008061238c8361153c565b90508073ffffffffffffffffffffffffffffffffffffffff168473ffffffffffffffffffffffffffffffffffffffff1614806123ce57506123cd8185612041565b5b8061240c57508373ffffffffffffffffffffffffffffffffffffffff166123f484610ccd565b73ffffffffffffffffffffffffffffffffffffffff16145b91505092915050565b8273ffffffffffffffffffffffffffffffffffffffff166124358261153c565b73ffffffffffffffffffffffffffffffffffffffff161461248b576040517f08c379a000000000000000000000000000000000000000000000000000000000815260040161248290613f9b565b60405180910390fd5b600073ffffffffffffffffffffffffffffffffffffffff168273ffffffffffffffffffffffffffffffffffffffff1614156124fb576040517f08c379a00000000000000000000000000000000000000000000000000000000081526004016124f290613ffb565b60405180910390fd5b612506838383612da7565b61251160008261223b565b6001600360008573ffffffffffffffffffffffffffffffffffffffff1673ffffffffffffffffffffffffffffffffffffffff1681526020019081526020016000206000828254612561919061442d565b925050819055506001600360008473ffffffffffffffffffffffffffffffffffffffff1673ffffffffffffffffffffffffffffffffffffffff16815260200190815260200160002060008282546125b8919061434c565b92505081905550816002600083815260200190815260200160002060006101000a81548173ffffffffffffffffffffffffffffffffffffffff021916908373ffffffffffffffffffffffffffffffffffffffff160217905550808273ffffffffffffffffffffffffffffffffffffffff168473ffffffffffffffffffffffffffffffffffffffff167fddf252ad1be2c89b69c2b068fc378daa952ba7f163c4a11628f55a4df523b3ef60405160405180910390a4612677838383612dac565b505050565b60005b818110156126b7576126916009612db1565b6126a48361269f60096122f4565b612dc7565b80806126af9061457a565b91505061267f565b507f8543a85578cea47e5b503de67b44ca7db3d3078db10eccfb581009e14afb2cb682826040516126e9929190613eb5565b60405180910390a15050565b6126fd612de5565b6000600860006101000a81548160ff0219169083151502179055507f5db9ee0a495bf2e6ff9c91a7834c1ba4fdd244a5e8aa4e537bd38aeae4b073aa612741612233565b60405161274e9190613d68565b60405180910390a1565b6000600660009054906101000a900473ffffffffffffffffffffffffffffffffffffffff16905081600660006101000a81548173ffffffffffffffffffffffffffffffffffffffff021916908373ffffffffffffffffffffffffffffffffffffffff1602179055508173ffffffffffffffffffffffffffffffffffffffff168173ffffffffffffffffffffffffffffffffffffffff167f8be0079c531659141344cd1fd0a4f28419497f9722a3daafe3b4186f6b6457e060405160405180910390a35050565b6000601360008373ffffffffffffffffffffffffffffffffffffffff1673ffffffffffffffffffffffffffffffffffffffff16815260200190815260200160002060009054906101000a900460ff16806128aa575061287b611887565b73ffffffffffffffffffffffffffffffffffffffff168273ffffffffffffffffffffffffffffffffffffffff16145b9050919050565b6128b9612e2e565b6001600860006101000a81548160ff0219169083151502179055507f62e78cea01bee320cd4e420270b5ea74000d11b0c9f74754ebdbfc544b05a2586128fd612233565b60405161290a9190613d68565b60405180910390a1565b8173ffffffffffffffffffffffffffffffffffffffff168373ffffffffffffffffffffffffffffffffffffffff161415612983576040517f08c379a000000000000000000000000000000000000000000000000000000000815260040161297a9061401b565b60405180910390fd5b80600560008573ffffffffffffffffffffffffffffffffffffffff1673ffffffffffffffffffffffffffffffffffffffff16815260200190815260200160002060008473ffffffffffffffffffffffffffffffffffffffff1673ffffffffffffffffffffffffffffffffffffffff16815260200190815260200160002060006101000a81548160ff0219169083151502179055508173ffffffffffffffffffffffffffffffffffffffff168373ffffffffffffffffffffffffffffffffffffffff167f17307eab39ab6107e8899845ad3d59bd9653f200f220920489ca2b5937696c3183604051612a749190613ede565b60405180910390a3505050565b612a8c848484612415565b612a9884848484612e78565b612ad7576040517f08c379a0000000000000000000000000000000000000000000000000000000008152600401612ace90613f3b565b60405180910390fd5b50505050565b60008073ffffffffffffffffffffffffffffffffffffffff166002600084815260200190815260200160002060009054906101000a900473ffffffffffffffffffffffffffffffffffffffff1673ffffffffffffffffffffffffffffffffffffffff1614159050919050565b6060600a8054612b5890614517565b80601f0160208091040260200160405190810160405280929190818152602001828054612b8490614517565b8015612bd15780601f10612ba657610100808354040283529160200191612bd1565b820191906000526020600020905b815481529060010190602001808311612bb457829003601f168201915b5050505050905090565b60606000821415612c23576040518060400160405280600181526020017f30000000000000000000000000000000000000000000000000000000000000008152509050612da2565b600082905060005b60008214612c55578080612c3e9061457a565b915050600a82612c4e91906143a2565b9150612c2b565b60008167ffffffffffffffff811115612c97577f4e487b7100000000000000000000000000000000000000000000000000000000600052604160045260246000fd5b6040519080825280601f01601f191660200182016040528015612cc95781602001600182028036833780820191505090505b5090505b60008514612d9b57600182612ce2919061442d565b9150600a85612cf191906145c3565b6030612cfd919061434c565b7f010000000000000000000000000000000000000000000000000000000000000002818381518110612d58577f4e487b7100000000000000000000000000000000000000000000000000000000600052603260045260246000fd5b60200101907effffffffffffffffffffffffffffffffffffffffffffffffffffffffffffff1916908160001a905350600a85612d9491906143a2565b9450612ccd565b8093505050505b919050565b505050565b505050565b6001816000016000828254019250508190555050565b612de1828260405180602001604052806000815250613047565b5050565b612ded611497565b612e2c576040517f08c379a0000000000000000000000000000000000000000000000000000000008152600401612e2390613f1b565b60405180910390fd5b565b612e36611497565b15612e76576040517f08c379a0000000000000000000000000000000000000000000000000000000008152600401612e6d9061405b565b60405180910390fd5b565b6000612e998473ffffffffffffffffffffffffffffffffffffffff166130a2565b1561303a578373ffffffffffffffffffffffffffffffffffffffff1663150b7a02612ec2612233565b8786866040518563ffffffff167c0100000000000000000000000000000000000000000000000000000000028152600401612f009493929190613d83565b602060405180830381600087803b158015612f1a57600080fd5b505af1925050508015612f4b57506040513d601f19601f82011682018060405250810190612f489190613722565b60015b612fce573d8060008114612f7b576040519150601f19603f3d011682016040523d82523d6000602084013e612f80565b606091505b50600081511415612fc6576040517f08c379a0000000000000000000000000000000000000000000000000000000008152600401612fbd90613f3b565b60405180910390fd5b805181602001fd5b63150b7a027c0100000000000000000000000000000000000000000000000000000000027bffffffffffffffffffffffffffffffffffffffffffffffffffffffff1916817bffffffffffffffffffffffffffffffffffffffffffffffffffffffff19161491505061303f565b600190505b949350505050565b61305183836130c5565b61305e6000848484612e78565b61309d576040517f08c379a000000000000000000000000000000000000000000000000000000000815260040161309490613f3b565b60405180910390fd5b505050565b6000808273ffffffffffffffffffffffffffffffffffffffff163b119050919050565b600073ffffffffffffffffffffffffffffffffffffffff168273ffffffffffffffffffffffffffffffffffffffff161415613135576040517f08c379a000000000000000000000000000000000000000000000000000000000815260040161312c906140db565b60405180910390fd5b61313e81612add565b1561317e576040517f08c379a000000000000000000000000000000000000000000000000000000000815260040161317590613fbb565b60405180910390fd5b61318a60008383612da7565b6001600360008473ffffffffffffffffffffffffffffffffffffffff1673ffffffffffffffffffffffffffffffffffffffff16815260200190815260200160002060008282546131da919061434c565b92505081905550816002600083815260200190815260200160002060006101000a81548173ffffffffffffffffffffffffffffffffffffffff021916908373ffffffffffffffffffffffffffffffffffffffff160217905550808273ffffffffffffffffffffffffffffffffffffffff16600073ffffffffffffffffffffffffffffffffffffffff167fddf252ad1be2c89b69c2b068fc378daa952ba7f163c4a11628f55a4df523b3ef60405160405180910390a461329b60008383612dac565b5050565b8280546132ab90614517565b90600052602060002090601f0160209004810192826132cd5760008555613314565b82601f106132e657805160ff1916838001178555613314565b82800160010185558215613314579182015b828111156133135782518255916020019190600101906132f8565b5b5090506133219190613325565b5090565b5b8082111561333e576000816000905550600101613326565b5090565b60006133556133508461425b565b614236565b9050808382526020820190508285602086028201111561337457600080fd5b60005b858110156133a4578161338a888261342a565b845260208401935060208301925050600181019050613377565b5050509392505050565b60006133c16133bc84614287565b614236565b9050828152602081018484840111156133d957600080fd5b6133e48482856144d5565b509392505050565b60006133ff6133fa846142b8565b614236565b90508281526020810184848401111561341757600080fd5b6134228482856144d5565b509392505050565b60008135905061343981614c1b565b92915050565b600082601f83011261345057600080fd5b8135613460848260208601613342565b91505092915050565b60008135905061347881614c32565b92915050565b60008135905061348d81614c49565b92915050565b6000815190506134a281614c49565b92915050565b600082601f8301126134b957600080fd5b81356134c98482602086016133ae565b91505092915050565b600082601f8301126134e357600080fd5b81356134f38482602086016133ec565b91505092915050565b60008135905061350b81614c60565b92915050565b60006020828403121561352357600080fd5b60006135318482850161342a565b91505092915050565b6000806040838503121561354d57600080fd5b600061355b8582860161342a565b925050602061356c8582860161342a565b9150509250929050565b60008060006060848603121561358b57600080fd5b60006135998682870161342a565b93505060206135aa8682870161342a565b92505060406135bb868287016134fc565b9150509250925092565b600080600080608085870312156135db57600080fd5b60006135e98782880161342a565b94505060206135fa8782880161342a565b935050604061360b878288016134fc565b925050606085013567ffffffffffffffff81111561362857600080fd5b613634878288016134a8565b91505092959194509250565b6000806040838503121561365357600080fd5b60006136618582860161342a565b925050602061367285828601613469565b9150509250929050565b6000806040838503121561368f57600080fd5b600061369d8582860161342a565b92505060206136ae858286016134fc565b9150509250929050565b6000602082840312156136ca57600080fd5b600082013567ffffffffffffffff8111156136e457600080fd5b6136f08482850161343f565b91505092915050565b60006020828403121561370b57600080fd5b60006137198482850161347e565b91505092915050565b60006020828403121561373457600080fd5b600061374284828501613493565b91505092915050565b60006020828403121561375d57600080fd5b600082013567ffffffffffffffff81111561377757600080fd5b613783848285016134d2565b91505092915050565b60006020828403121561379e57600080fd5b60006137ac848285016134fc565b91505092915050565b600080604083850312156137c857600080fd5b60006137d6858286016134fc565b92505060206137e78582860161342a565b9150509250929050565b6000806040838503121561380457600080fd5b6000613812858286016134fc565b925050602083013567ffffffffffffffff81111561382f57600080fd5b61383b8582860161343f565b9150509250929050565b61384e81614461565b82525050565b61385d81614473565b82525050565b600061386e826142fe565b6138788185614314565b93506138888185602086016144e4565b613891816146b0565b840191505092915050565b60006138a782614309565b6138b18185614330565b93506138c18185602086016144e4565b6138ca816146b0565b840191505092915050565b60006138e082614309565b6138ea8185614341565b93506138fa8185602086016144e4565b80840191505092915050565b6000815461391381614517565b61391d8186614341565b9450600182166000811461393857600181146139495761397c565b60ff1983168652818601935061397c565b613952856142e9565b60005b8381101561397457815481890152600182019150602081019050613955565b838801955050505b50505092915050565b6000613992601483614330565b915061399d826146c1565b602082019050919050565b60006139b5603283614330565b91506139c0826146ea565b604082019050919050565b60006139d8601683614330565b91506139e382614739565b602082019050919050565b60006139fb602683614330565b9150613a0682614762565b604082019050919050565b6000613a1e602583614330565b9150613a29826147b1565b604082019050919050565b6000613a41601c83614330565b9150613a4c82614800565b602082019050919050565b6000613a64601483614330565b9150613a6f82614829565b602082019050919050565b6000613a87602483614330565b9150613a9282614852565b604082019050919050565b6000613aaa601983614330565b9150613ab5826148a1565b602082019050919050565b6000613acd601283614330565b9150613ad8826148ca565b602082019050919050565b6000613af0601a83614330565b9150613afb826148f3565b602082019050919050565b6000613b13601083614330565b9150613b1e8261491c565b602082019050919050565b6000613b36602983614330565b9150613b4182614945565b604082019050919050565b6000613b59601783614330565b9150613b6482614994565b602082019050919050565b6000613b7c603e83614330565b9150613b87826149bd565b604082019050919050565b6000613b9f602083614330565b9150613baa82614a0c565b602082019050919050565b6000613bc2602083614330565b9150613bcd82614a35565b602082019050919050565b6000613be5602f83614330565b9150613bf082614a5e565b604082019050919050565b6000613c08601c83614330565b9150613c1382614aad565b602082019050919050565b6000613c2b601583614330565b9150613c3682614ad6565b602082019050919050565b6000613c4e601883614330565b9150613c5982614aff565b602082019050919050565b6000613c71602183614330565b9150613c7c82614b28565b604082019050919050565b6000613c94600083614325565b9150613c9f82614b77565b600082019050919050565b6000613cb7601283614330565b9150613cc282614b7a565b602082019050919050565b6000613cda602e83614330565b9150613ce582614ba3565b604082019050919050565b6000613cfd601f83614330565b9150613d0882614bf2565b602082019050919050565b613d1c816144cb565b82525050565b6000613d2e82866138d5565b9150613d3a82856138d5565b9150613d468284613906565b9150819050949350505050565b6000613d5e82613c87565b9150819050919050565b6000602082019050613d7d6000830184613845565b92915050565b6000608082019050613d986000830187613845565b613da56020830186613845565b613db26040830185613d13565b8181036060830152613dc48184613863565b905095945050505050565b6000604082019050613de46000830184613845565b8181036020830152613df581613a57565b905092915050565b6000604082019050613e126000830184613845565b8181036020830152613e2381613ac0565b905092915050565b6000604082019050613e406000830184613845565b8181036020830152613e5181613b4c565b905092915050565b6000604082019050613e6e6000830184613845565b8181036020830152613e7f81613bfb565b905092915050565b6000604082019050613e9c6000830184613845565b8181036020830152613ead81613cf0565b905092915050565b6000604082019050613eca6000830185613845565b613ed76020830184613d13565b9392505050565b6000602082019050613ef36000830184613854565b92915050565b60006020820190508181036000830152613f13818461389c565b905092915050565b60006020820190508181036000830152613f3481613985565b9050919050565b60006020820190508181036000830152613f54816139a8565b9050919050565b60006020820190508181036000830152613f74816139cb565b9050919050565b60006020820190508181036000830152613f94816139ee565b9050919050565b60006020820190508181036000830152613fb481613a11565b9050919050565b60006020820190508181036000830152613fd481613a34565b9050919050565b60006020820190508181036000830152613ff481613a57565b9050919050565b6000602082019050818103600083015261401481613a7a565b9050919050565b6000602082019050818103600083015261403481613a9d565b9050919050565b6000602082019050818103600083015261405481613ae3565b9050919050565b6000602082019050818103600083015261407481613b06565b9050919050565b6000602082019050818103600083015261409481613b29565b9050919050565b600060208201905081810360008301526140b481613b4c565b9050919050565b600060208201905081810360008301526140d481613b6f565b9050919050565b600060208201905081810360008301526140f481613b92565b9050919050565b6000602082019050818103600083015261411481613bb5565b9050919050565b6000602082019050818103600083015261413481613bd8565b9050919050565b6000602082019050818103600083015261415481613bfb565b9050919050565b6000602082019050818103600083015261417481613c1e565b9050919050565b6000602082019050818103600083015261419481613c41565b9050919050565b600060208201905081810360008301526141b481613c64565b9050919050565b600060208201905081810360008301526141d481613caa565b9050919050565b600060208201905081810360008301526141f481613ccd565b9050919050565b6000602082019050818103600083015261421481613cf0565b9050919050565b60006020820190506142306000830184613d13565b92915050565b6000614240614251565b905061424c8282614549565b919050565b6000604051905090565b600067ffffffffffffffff82111561427657614275614681565b5b602082029050602081019050919050565b600067ffffffffffffffff8211156142a2576142a1614681565b5b6142ab826146b0565b9050602081019050919050565b600067ffffffffffffffff8211156142d3576142d2614681565b5b6142dc826146b0565b9050602081019050919050565b60008190508160005260206000209050919050565b600081519050919050565b600081519050919050565b600082825260208201905092915050565b600081905092915050565b600082825260208201905092915050565b600081905092915050565b6000614357826144cb565b9150614362836144cb565b9250827fffffffffffffffffffffffffffffffffffffffffffffffffffffffffffffffff03821115614397576143966145f4565b5b828201905092915050565b60006143ad826144cb565b91506143b8836144cb565b9250826143c8576143c7614623565b5b828204905092915050565b60006143de826144cb565b91506143e9836144cb565b9250817fffffffffffffffffffffffffffffffffffffffffffffffffffffffffffffffff0483118215151615614422576144216145f4565b5b828202905092915050565b6000614438826144cb565b9150614443836144cb565b925082821015614456576144556145f4565b5b828203905092915050565b600061446c826144ab565b9050919050565b60008115159050919050565b60007fffffffff0000000000000000000000000000000000000000000000000000000082169050919050565b600073ffffffffffffffffffffffffffffffffffffffff82169050919050565b6000819050919050565b82818337600083830152505050565b60005b838110156145025780820151818401526020810190506144e7565b83811115614511576000848401525b50505050565b6000600282049050600182168061452f57607f821691505b6020821081141561454357614542614652565b5b50919050565b614552826146b0565b810181811067ffffffffffffffff8211171561457157614570614681565b5b80604052505050565b6000614585826144cb565b91507fffffffffffffffffffffffffffffffffffffffffffffffffffffffffffffffff8214156145b8576145b76145f4565b5b600182019050919050565b60006145ce826144cb565b91506145d9836144cb565b9250826145e9576145e8614623565b5b828206905092915050565b7f4e487b7100000000000000000000000000000000000000000000000000000000600052601160045260246000fd5b7f4e487b7100000000000000000000000000000000000000000000000000000000600052601260045260246000fd5b7f4e487b7100000000000000000000000000000000000000000000000000000000600052602260045260246000fd5b7f4e487b7100000000000000000000000000000000000000000000000000000000600052604160045260246000fd5b6000601f19601f8301169050919050565b7f5061757361626c653a206e6f7420706175736564000000000000000000000000600082015250565b7f4552433732313a207472616e7366657220746f206e6f6e20455243373231526560008201527f63656976657220696d706c656d656e7465720000000000000000000000000000602082015250565b7f54686520636f6e74726163742069732070617573656400000000000000000000600082015250565b7f4f776e61626c653a206e6577206f776e657220697320746865207a65726f206160008201527f6464726573730000000000000000000000000000000000000000000000000000602082015250565b7f4552433732313a207472616e736665722066726f6d20696e636f72726563742060008201527f6f776e6572000000000000000000000000000000000000000000000000000000602082015250565b7f4552433732313a20746f6b656e20616c7265616479206d696e74656400000000600082015250565b7f496e76616c6964206d696e7420616d6f756e7421000000000000000000000000600082015250565b7f4552433732313a207472616e7366657220746f20746865207a65726f2061646460008201527f7265737300000000000000000000000000000000000000000000000000000000602082015250565b7f4552433732313a20617070726f766520746f2063616c6c657200000000000000600082015250565b7f496e73756666696369656e742066756e64730000000000000000000000000000600082015250565b7f436f6e74726163742069732073657420746f2050617573652021000000000000600082015250565b7f5061757361626c653a2070617573656400000000000000000000000000000000600082015250565b7f4552433732313a2061646472657373207a65726f206973206e6f74206120766160008201527f6c6964206f776e65720000000000000000000000000000000000000000000000602082015250565b7f4d6178204e4654206c696d697420657863656564656421000000000000000000600082015250565b7f4552433732313a20617070726f76652063616c6c6572206973206e6f7420746f60008201527f6b656e206f776e6572206e6f7220617070726f76656420666f7220616c6c0000602082015250565b7f4552433732313a206d696e7420746f20746865207a65726f2061646472657373600082015250565b7f4f776e61626c653a2063616c6c6572206973206e6f7420746865206f776e6572600082015250565b7f4552433732314d657461646174613a2055524920717565727920666f72206e6f60008201527f6e6578697374656e7420746f6b656e0000000000000000000000000000000000602082015250565b7f4d6178204e465420706572206164647265737320657863656564656400000000600082015250565b7f436f6e747261637420697320756e506175736520210000000000000000000000600082015250565b7f4552433732313a20696e76616c696420746f6b656e2049440000000000000000600082015250565b7f4552433732313a20617070726f76616c20746f2063757272656e74206f776e6560008201527f7200000000000000000000000000000000000000000000000000000000000000602082015250565b50565b7f696e73756666696369656e742066756e64730000000000000000000000000000600082015250565b7f4552433732313a2063616c6c6572206973206e6f7420746f6b656e206f776e6560008201527f72206e6f7220617070726f766564000000000000000000000000000000000000602082015250565b7f596f7520617265206e6f7420696e207468652077686974656c69737420212100600082015250565b614c2481614461565b8114614c2f57600080fd5b50565b614c3b81614473565b8114614c4657600080fd5b50565b614c528161447f565b8114614c5d57600080fd5b50565b614c69816144cb565b8114614c7457600080fd5b5056fea26469706673582212207400f6767f0301809164b105373a3f1dd43a2f2eb3bfedb5bf530321e7d3484764736f6c63430008010033",
  "immutableReferences": {},
  "source": "// contracts/PFPinatas.sol\n// SPDX-License-Identifier: MIT\npragma solidity ^0.8.1;\n\nimport \"@openzeppelin/contracts/utils/Counters.sol\";\nimport \"@openzeppelin/contracts/access/Ownable.sol\";\nimport \"@openzeppelin/contracts/utils/Strings.sol\";\nimport \"@openzeppelin/contracts/token/ERC721/ERC721.sol\";\nimport \"@openzeppelin/contracts/security/ReentrancyGuard.sol\";\nimport \"@openzeppelin/contracts/security/Pausable.sol\";\n\ncontract Athlete is ERC721, Ownable, ReentrancyGuard,Pausable  {\n\n//used to increment how many NFT's have been minted\n  using Counters for Counters.Counter;\n  Counters.Counter private supply;\n\n/*\n* NFT IPFS configuration \n*/\n  //ipfs://CDI/\n  string public uriPrefix = \"\";\n  //files extension from baseExtension location\n  string public uriSuffix = \".json\";\n  //ipfs://CDI/hidden.json\n  string public hiddenMetadataUri=\"\";\n\n/*\n*END IPFS Configuration\n*/\n\n/*\n* NFT Costs and minting limits Configuration  \n*/\n//Cost per mint!\n  uint256 public cost = 1000000000000000000;\n//How many NFT's you can mint in total\n  uint256 public maxSupply = 10000;\n//Set NFT minting amount per transaction\n  uint256 public maxMintAmountPerTx = 50;\n//Set limit per address to mint  \n  uint256 public nftPerAddressLimit = 100;\n//Limit for maximum NFT's you can mint\n  uint256 public limitSupply=0;\n/*\n* END NFT Costs and minting limits Configuration  \n*/\n\n//List of events\nevent contractIsPaused(string _paused);\nevent contractIsUnPaused(string _unPaused);\nevent itHasMinted(address _adr, uint _value);\nevent invalidMindAmount(address _adr, string _message);\nevent mintLimitExceeded(address _adr, string _message);\nevent notInTheWhiteList(address _adr, string _message);\nevent maxMintAmountReached(address _adr, string _message);\nevent insufficientFunds(address _adr, string _event);\n\n//Setting up the mintig properties  \n  bool public onlyWhitelisted = false;\n  \n/*\n* Presale/WhiteList/AirDrop Configuration\n*/\n  mapping(address => bool) public whitelisted;\n  mapping(address => uint256) public addressMintedBalance;\n\n/*\n* EDND Presale/WhiteList/AirDrop Configuration\n*/\n//Setting up the contract state when deployed\n  constructor(\n    string memory _name,\n    string memory _symbol,\n    string memory _initBaseURI\n  ) ERC721(_name, _symbol) {\n    addressMintedBalance[ msg.sender]=0;\n    setBaseURI(_initBaseURI);\n    pause();\n  }\n\n/*\n* Rules of the contract\n*/\n    modifier mintCompliance(uint256 _mintAmount) {\n       require(!paused(), \"The contract is paused\");\n\n       require(_mintAmount > 0 && _mintAmount <= maxMintAmountPerTx , \"Invalid mint amount!\");\n      if(!(_mintAmount > 0 && _mintAmount <= maxMintAmountPerTx)){\n        emit invalidMindAmount(msg.sender, \"Invalid mint amount!\");\n      }\n\n      require(supply.current() + _mintAmount <= maxSupply - limitSupply, \"Max NFT limit exceeded!\");\n      if(!(supply.current() + _mintAmount <= maxSupply - limitSupply)){\n        emit mintLimitExceeded(msg.sender, \"Max NFT limit exceeded!\");\n      }  \n    _;\n  }\n/*\n* EMD Rules of the contract\n*/\n\n/*\n* This is the minting function\n*/\nfunction mint(uint256 _mintAmount) public payable mintCompliance(_mintAmount) {\n\n    if (msg.sender != owner()) {\n        if(onlyWhitelisted == true) {\n            require(isInWhiteList(msg.sender)==true,\"You are not in the whitelist !!\");\n            if(!isInWhiteList(msg.sender)==true){\n              emit notInTheWhiteList(msg.sender, \"You are not in the whitelist !!\");\n            }\n            uint256 ownerMintedCount = addressMintedBalance[msg.sender];\n            require(ownerMintedCount + _mintAmount <= nftPerAddressLimit, \"Max NFT per address exceeded\");\n            if(!(ownerMintedCount + _mintAmount <= nftPerAddressLimit)){\n              emit maxMintAmountReached(msg.sender, \"Max NFT per address exceeded\");\n            }\n        }\n        require(msg.value >= cost * _mintAmount, \"insufficient funds\");\n        if(!(msg.value >= cost * _mintAmount)){\n          emit insufficientFunds(msg.sender, \"Insufficient funds\");\n        }\n    }\n\n    _mintLoop(msg.sender, _mintAmount);\n  }\n\nfunction _mintLoop(address _receiver, uint256 _mintAmount) internal {\n  for (uint256 i = 0; i < _mintAmount; i++) {\n    supply.increment();\n    _safeMint(_receiver, supply.current());\n  }\n  emit itHasMinted(_receiver, _mintAmount);\n}\n \n  function _baseURI() internal view virtual override returns (string memory) {\n    return uriPrefix;\n  }\n\n /*\n    @_mintAmount -> amount you want to mint \n    @_receiver   -> wallet addres you want to send it to\n    This function is used for bonuses, airdrops or prizes \n */\n function mintForOneAddress(uint256 _mintAmount, address _receiver) public mintCompliance(_mintAmount) onlyOwner {\n    _mintLoop(_receiver, _mintAmount);\n  }\n\n/*\n    @_mintAmount -> amount you want to mint\n    @_receivers[] -> wallet address you want to send the minted NFT's: for each address/amount\n*/\n function mintForMultipleAddresses(uint256 _mintAmount, address[] memory _receivers) public mintCompliance(_mintAmount) onlyOwner {\n      for (uint256 i=0;i< _receivers.length;i++)\n        _mintLoop(_receivers[i], _mintAmount);\n  }\n \n  function _mintSingleNFT() private {\n       supply.increment();\n      _safeMint(msg.sender, supply.current());\n  } \n\n/*\n  @_addr -> adding 1 address to the whiteList\n*/\n  function addToWhiteList(address _addr) public onlyOwner {\n      whitelisted[_addr] = true;\n  }\n/*\n  @_addrsp[] -> adding multiple addresses to the whiteList\n*/\n   function addAMultipleAddressesToWhiteList(address[] memory _addrs) public onlyOwner {\n      \n      for (uint256 i=0;i< _addrs.length;i++){\n            whitelisted[_addrs[i]] = true;\n          }  \n  }\n\n/*\n  Setting whiteList to true\n*/\n  function whiteListOn() public onlyOwner{\n    onlyWhitelisted=true;\n  }\n  /*\n  Setting whiteList to false\n*/\n  function whiteListOff() public onlyOwner{\n    onlyWhitelisted=false;\n  }\n/*\n  check if the contract is paused\n*/\n    function isItpaused() public view virtual returns (bool) {\n        return paused();\n    }\n\n/*\n  @_addr -> check if address exists in the WhiteList private\n*/\n  function isInWhiteList(address _addr) private view returns (bool) {\n            return whitelisted[_addr]  || _addr == owner();\n  }\n\n/*\n  @_addr -> calles the private function which can access the mapping array and checks if address exists\n*/\n  function checkAddressIsWhiteListed(address _addr) public view returns(bool){\n      return isInWhiteList(_addr);\n  }\n\n  function getNFTBalance() public view returns (uint256) {\n      return supply.current();\n  }\n\n      function getBalance() public view onlyOwner returns(uint256) {\n      return address(this).balance; \n    }\n\n    function getMyNFTBalance() public view returns(uint256){\n      return addressMintedBalance[msg.sender];\n    }\n\n    function getNFTBalanceByAddress(address _addr) public view returns(uint256){\n      return addressMintedBalance[_addr];\n    }\n\n  function tokenURI(uint256 _tokenId)\n    public\n    view\n    virtual\n    override\n    returns (string memory)\n  {\n    require(\n      _exists(_tokenId),\n      \"ERC721Metadata: URI query for nonexistent token\"\n    );\n    \n    string memory currentBaseURI = _baseURI();\n    return bytes(currentBaseURI).length > 0\n        ? string(abi.encodePacked(currentBaseURI, Strings.toString(_tokenId), uriSuffix))\n        : \"\";\n  }\n\n    function pause() public onlyOwner {\n        _pause();\n        emit contractIsPaused(\"Contract is set to Pause !\");\n    }\n\n    function unpause() public onlyOwner {\n        _unpause();\n        emit contractIsUnPaused(\"Contract is unPause !\");\n    }\n\n  /*\n   @_limit Set's the minting limit per address\n  */\n  function setNftPerAddressLimit(uint256 _limit) public onlyOwner {\n    nftPerAddressLimit = _limit;\n  }\n\n  function setMaxMintAmountPerTx(uint256 _limit) public onlyOwner {\n      maxMintAmountPerTx = _limit;\n  }\n\n  /*\n    @_newCost Set's the cost's per 1 NFT\n  */\n  function setCost(uint256 _newCost) public onlyOwner {\n    cost = _newCost;\n  }\n  /*\n    @_newMaxMintAmount Set's the minting limit from 1000 NFT's only newMaxMintAmount are mintable\n  */\n  function setmaxMintAmount(uint256 _newMaxMintAmount) public onlyOwner {\n    limitSupply = _newMaxMintAmount;\n  }\n/*\n  @_newBaseURI Set's the address for uriPrefix -> //ipfs://CDI/\n*/\n  function setBaseURI(string memory _newBaseURI) public onlyOwner {\n    uriPrefix = _newBaseURI;\n  }\n/*\n  @_newBaaseExtension Set's the base extension which should be .json\n*/\n  function setBaseExtension(string memory _newBaseExtension) public onlyOwner {\n    uriSuffix = _newBaseExtension;\n  }\n \n //withdraw everything to the owners wallet\n  function withdrawAll() public payable onlyOwner {\n\n    (bool os, ) = payable(owner()).call{value: address(this).balance}(\"\");\n    require(os);\n  }\n\n    fallback() external payable {}\n    receive() external payable {}\n}",
  "sourcePath": "/home/danisev/Polygon/test_project/project_athletes/contracts/Athlete.sol",
  "compiler": {
    "name": "solc",
    "version": "0.8.1+commit.df193b15.Emscripten.clang"
  },
  "schemaVersion": "3.4.9",
  "updatedAt": "2022-11-06T19:36:29.281Z",
  "devdoc": {
    "kind": "dev",
    "methods": {
      "approve(address,uint256)": {
        "details": "See {IERC721-approve}."
      },
      "balanceOf(address)": {
        "details": "See {IERC721-balanceOf}."
      },
      "getApproved(uint256)": {
        "details": "See {IERC721-getApproved}."
      },
      "isApprovedForAll(address,address)": {
        "details": "See {IERC721-isApprovedForAll}."
      },
      "name()": {
        "details": "See {IERC721Metadata-name}."
      },
      "owner()": {
        "details": "Returns the address of the current owner."
      },
      "ownerOf(uint256)": {
        "details": "See {IERC721-ownerOf}."
      },
      "paused()": {
        "details": "Returns true if the contract is paused, and false otherwise."
      },
      "renounceOwnership()": {
        "details": "Leaves the contract without owner. It will not be possible to call `onlyOwner` functions anymore. Can only be called by the current owner. NOTE: Renouncing ownership will leave the contract without an owner, thereby removing any functionality that is only available to the owner."
      },
      "safeTransferFrom(address,address,uint256)": {
        "details": "See {IERC721-safeTransferFrom}."
      },
      "safeTransferFrom(address,address,uint256,bytes)": {
        "details": "See {IERC721-safeTransferFrom}."
      },
      "setApprovalForAll(address,bool)": {
        "details": "See {IERC721-setApprovalForAll}."
      },
      "supportsInterface(bytes4)": {
        "details": "See {IERC165-supportsInterface}."
      },
      "symbol()": {
        "details": "See {IERC721Metadata-symbol}."
      },
      "transferFrom(address,address,uint256)": {
        "details": "See {IERC721-transferFrom}."
      },
      "transferOwnership(address)": {
        "details": "Transfers ownership of the contract to a new account (`newOwner`). Can only be called by the current owner."
      }
    },
    "version": 1
  },
  "userdoc": {
    "kind": "user",
    "methods": {},
    "version": 1
  }
}