{
  "contractName": "InsideMe",
  "abi": [
    {
      "inputs": [
        {
          "internalType": "string",
          "name": "_name",
          "type": "string"
        },
        {
          "internalType": "string",
          "name": "_symbol",
          "type": "string"
        },
        {
          "internalType": "string",
          "name": "_initBaseURI",
          "type": "string"
        }
      ],
      "stateMutability": "nonpayable",
      "type": "constructor"
    },
    {
      "anonymous": false,
      "inputs": [
        {
          "indexed": true,
          "internalType": "address",
          "name": "owner",
          "type": "address"
        },
        {
          "indexed": true,
          "internalType": "address",
          "name": "approved",
          "type": "address"
        },
        {
          "indexed": true,
          "internalType": "uint256",
          "name": "tokenId",
          "type": "uint256"
        }
      ],
      "name": "Approval",
      "type": "event"
    },
    {
      "anonymous": false,
      "inputs": [
        {
          "indexed": true,
          "internalType": "address",
          "name": "owner",
          "type": "address"
        },
        {
          "indexed": true,
          "internalType": "address",
          "name": "operator",
          "type": "address"
        },
        {
          "indexed": false,
          "internalType": "bool",
          "name": "approved",
          "type": "bool"
        }
      ],
      "name": "ApprovalForAll",
      "type": "event"
    },
    {
      "anonymous": false,
      "inputs": [
        {
          "indexed": true,
          "internalType": "address",
          "name": "previousOwner",
          "type": "address"
        },
        {
          "indexed": true,
          "internalType": "address",
          "name": "newOwner",
          "type": "address"
        }
      ],
      "name": "OwnershipTransferred",
      "type": "event"
    },
    {
      "anonymous": false,
      "inputs": [
        {
          "indexed": false,
          "internalType": "address",
          "name": "account",
          "type": "address"
        }
      ],
      "name": "Paused",
      "type": "event"
    },
    {
      "anonymous": false,
      "inputs": [
        {
          "indexed": true,
          "internalType": "address",
          "name": "from",
          "type": "address"
        },
        {
          "indexed": true,
          "internalType": "address",
          "name": "to",
          "type": "address"
        },
        {
          "indexed": true,
          "internalType": "uint256",
          "name": "tokenId",
          "type": "uint256"
        }
      ],
      "name": "Transfer",
      "type": "event"
    },
    {
      "anonymous": false,
      "inputs": [
        {
          "indexed": false,
          "internalType": "address",
          "name": "account",
          "type": "address"
        }
      ],
      "name": "Unpaused",
      "type": "event"
    },
    {
      "anonymous": false,
      "inputs": [
        {
          "indexed": false,
          "internalType": "string",
          "name": "_paused",
          "type": "string"
        }
      ],
      "name": "contractIsPaused",
      "type": "event"
    },
    {
      "anonymous": false,
      "inputs": [
        {
          "indexed": false,
          "internalType": "string",
          "name": "_unPaused",
          "type": "string"
        }
      ],
      "name": "contractIsUnPaused",
      "type": "event"
    },
    {
      "anonymous": false,
      "inputs": [
        {
          "indexed": false,
          "internalType": "address",
          "name": "_adr",
          "type": "address"
        },
        {
          "indexed": false,
          "internalType": "string",
          "name": "_event",
          "type": "string"
        }
      ],
      "name": "insufficientFunds",
      "type": "event"
    },
    {
      "anonymous": false,
      "inputs": [
        {
          "indexed": false,
          "internalType": "address",
          "name": "_adr",
          "type": "address"
        },
        {
          "indexed": false,
          "internalType": "string",
          "name": "_message",
          "type": "string"
        }
      ],
      "name": "invalidMindAmount",
      "type": "event"
    },
    {
      "anonymous": false,
      "inputs": [
        {
          "indexed": false,
          "internalType": "address",
          "name": "_adr",
          "type": "address"
        },
        {
          "indexed": false,
          "internalType": "uint256",
          "name": "_value",
          "type": "uint256"
        }
      ],
      "name": "itHasMinted",
      "type": "event"
    },
    {
      "anonymous": false,
      "inputs": [
        {
          "indexed": false,
          "internalType": "address",
          "name": "_adr",
          "type": "address"
        },
        {
          "indexed": false,
          "internalType": "string",
          "name": "_message",
          "type": "string"
        }
      ],
      "name": "maxMintAmountReached",
      "type": "event"
    },
    {
      "anonymous": false,
      "inputs": [
        {
          "indexed": false,
          "internalType": "address",
          "name": "_adr",
          "type": "address"
        },
        {
          "indexed": false,
          "internalType": "string",
          "name": "_message",
          "type": "string"
        }
      ],
      "name": "mintLimitExceeded",
      "type": "event"
    },
    {
      "anonymous": false,
      "inputs": [
        {
          "indexed": false,
          "internalType": "address",
          "name": "_adr",
          "type": "address"
        },
        {
          "indexed": false,
          "internalType": "string",
          "name": "_message",
          "type": "string"
        }
      ],
      "name": "notInTheWhiteList",
      "type": "event"
    },
    {
      "stateMutability": "payable",
      "type": "fallback"
    },
    {
      "inputs": [
        {
          "internalType": "address",
          "name": "",
          "type": "address"
        }
      ],
      "name": "addressMintedBalance",
      "outputs": [
        {
          "internalType": "uint256",
          "name": "",
          "type": "uint256"
        }
      ],
      "stateMutability": "view",
      "type": "function"
    },
    {
      "inputs": [
        {
          "internalType": "address",
          "name": "to",
          "type": "address"
        },
        {
          "internalType": "uint256",
          "name": "tokenId",
          "type": "uint256"
        }
      ],
      "name": "approve",
      "outputs": [],
      "stateMutability": "nonpayable",
      "type": "function"
    },
    {
      "inputs": [
        {
          "internalType": "address",
          "name": "owner",
          "type": "address"
        }
      ],
      "name": "balanceOf",
      "outputs": [
        {
          "internalType": "uint256",
          "name": "",
          "type": "uint256"
        }
      ],
      "stateMutability": "view",
      "type": "function"
    },
    {
      "inputs": [],
      "name": "cost",
      "outputs": [
        {
          "internalType": "uint256",
          "name": "",
          "type": "uint256"
        }
      ],
      "stateMutability": "view",
      "type": "function"
    },
    {
      "inputs": [
        {
          "internalType": "uint256",
          "name": "tokenId",
          "type": "uint256"
        }
      ],
      "name": "getApproved",
      "outputs": [
        {
          "internalType": "address",
          "name": "",
          "type": "address"
        }
      ],
      "stateMutability": "view",
      "type": "function"
    },
    {
      "inputs": [],
      "name": "hiddenMetadataUri",
      "outputs": [
        {
          "internalType": "string",
          "name": "",
          "type": "string"
        }
      ],
      "stateMutability": "view",
      "type": "function"
    },
    {
      "inputs": [
        {
          "internalType": "address",
          "name": "owner",
          "type": "address"
        },
        {
          "internalType": "address",
          "name": "operator",
          "type": "address"
        }
      ],
      "name": "isApprovedForAll",
      "outputs": [
        {
          "internalType": "bool",
          "name": "",
          "type": "bool"
        }
      ],
      "stateMutability": "view",
      "type": "function"
    },
    {
      "inputs": [],
      "name": "limitSupply",
      "outputs": [
        {
          "internalType": "uint256",
          "name": "",
          "type": "uint256"
        }
      ],
      "stateMutability": "view",
      "type": "function"
    },
    {
      "inputs": [],
      "name": "maxMintAmountPerTx",
      "outputs": [
        {
          "internalType": "uint256",
          "name": "",
          "type": "uint256"
        }
      ],
      "stateMutability": "view",
      "type": "function"
    },
    {
      "inputs": [],
      "name": "maxSupply",
      "outputs": [
        {
          "internalType": "uint256",
          "name": "",
          "type": "uint256"
        }
      ],
      "stateMutability": "view",
      "type": "function"
    },
    {
      "inputs": [],
      "name": "name",
      "outputs": [
        {
          "internalType": "string",
          "name": "",
          "type": "string"
        }
      ],
      "stateMutability": "view",
      "type": "function"
    },
    {
      "inputs": [],
      "name": "nftPerAddressLimit",
      "outputs": [
        {
          "internalType": "uint256",
          "name": "",
          "type": "uint256"
        }
      ],
      "stateMutability": "view",
      "type": "function"
    },
    {
      "inputs": [],
      "name": "onlyWhitelisted",
      "outputs": [
        {
          "internalType": "bool",
          "name": "",
          "type": "bool"
        }
      ],
      "stateMutability": "view",
      "type": "function"
    },
    {
      "inputs": [],
      "name": "owner",
      "outputs": [
        {
          "internalType": "address",
          "name": "",
          "type": "address"
        }
      ],
      "stateMutability": "view",
      "type": "function"
    },
    {
      "inputs": [
        {
          "internalType": "uint256",
          "name": "tokenId",
          "type": "uint256"
        }
      ],
      "name": "ownerOf",
      "outputs": [
        {
          "internalType": "address",
          "name": "",
          "type": "address"
        }
      ],
      "stateMutability": "view",
      "type": "function"
    },
    {
      "inputs": [],
      "name": "paused",
      "outputs": [
        {
          "internalType": "bool",
          "name": "",
          "type": "bool"
        }
      ],
      "stateMutability": "view",
      "type": "function"
    },
    {
      "inputs": [],
      "name": "renounceOwnership",
      "outputs": [],
      "stateMutability": "nonpayable",
      "type": "function"
    },
    {
      "inputs": [
        {
          "internalType": "address",
          "name": "from",
          "type": "address"
        },
        {
          "internalType": "address",
          "name": "to",
          "type": "address"
        },
        {
          "internalType": "uint256",
          "name": "tokenId",
          "type": "uint256"
        }
      ],
      "name": "safeTransferFrom",
      "outputs": [],
      "stateMutability": "nonpayable",
      "type": "function"
    },
    {
      "inputs": [
        {
          "internalType": "address",
          "name": "from",
          "type": "address"
        },
        {
          "internalType": "address",
          "name": "to",
          "type": "address"
        },
        {
          "internalType": "uint256",
          "name": "tokenId",
          "type": "uint256"
        },
        {
          "internalType": "bytes",
          "name": "data",
          "type": "bytes"
        }
      ],
      "name": "safeTransferFrom",
      "outputs": [],
      "stateMutability": "nonpayable",
      "type": "function"
    },
    {
      "inputs": [
        {
          "internalType": "address",
          "name": "operator",
          "type": "address"
        },
        {
          "internalType": "bool",
          "name": "approved",
          "type": "bool"
        }
      ],
      "name": "setApprovalForAll",
      "outputs": [],
      "stateMutability": "nonpayable",
      "type": "function"
    },
    {
      "inputs": [
        {
          "internalType": "bytes4",
          "name": "interfaceId",
          "type": "bytes4"
        }
      ],
      "name": "supportsInterface",
      "outputs": [
        {
          "internalType": "bool",
          "name": "",
          "type": "bool"
        }
      ],
      "stateMutability": "view",
      "type": "function"
    },
    {
      "inputs": [],
      "name": "symbol",
      "outputs": [
        {
          "internalType": "string",
          "name": "",
          "type": "string"
        }
      ],
      "stateMutability": "view",
      "type": "function"
    },
    {
      "inputs": [
        {
          "internalType": "address",
          "name": "from",
          "type": "address"
        },
        {
          "internalType": "address",
          "name": "to",
          "type": "address"
        },
        {
          "internalType": "uint256",
          "name": "tokenId",
          "type": "uint256"
        }
      ],
      "name": "transferFrom",
      "outputs": [],
      "stateMutability": "nonpayable",
      "type": "function"
    },
    {
      "inputs": [
        {
          "internalType": "address",
          "name": "newOwner",
          "type": "address"
        }
      ],
      "name": "transferOwnership",
      "outputs": [],
      "stateMutability": "nonpayable",
      "type": "function"
    },
    {
      "inputs": [],
      "name": "uriPrefix",
      "outputs": [
        {
          "internalType": "string",
          "name": "",
          "type": "string"
        }
      ],
      "stateMutability": "view",
      "type": "function"
    },
    {
      "inputs": [],
      "name": "uriSuffix",
      "outputs": [
        {
          "internalType": "string",
          "name": "",
          "type": "string"
        }
      ],
      "stateMutability": "view",
      "type": "function"
    },
    {
      "inputs": [
        {
          "internalType": "address",
          "name": "",
          "type": "address"
        }
      ],
      "name": "whitelisted",
      "outputs": [
        {
          "internalType": "bool",
          "name": "",
          "type": "bool"
        }
      ],
      "stateMutability": "view",
      "type": "function"
    },
    {
      "stateMutability": "payable",
      "type": "receive"
    },
    {
      "inputs": [
        {
          "internalType": "uint256",
          "name": "_mintAmount",
          "type": "uint256"
        }
      ],
      "name": "mint",
      "outputs": [],
      "stateMutability": "payable",
      "type": "function"
    },
    {
      "inputs": [
        {
          "internalType": "uint256",
          "name": "_mintAmount",
          "type": "uint256"
        },
        {
          "internalType": "address",
          "name": "_receiver",
          "type": "address"
        }
      ],
      "name": "mintForOneAddress",
      "outputs": [],
      "stateMutability": "nonpayable",
      "type": "function"
    },
    {
      "inputs": [
        {
          "internalType": "uint256",
          "name": "_mintAmount",
          "type": "uint256"
        },
        {
          "internalType": "address[]",
          "name": "_receivers",
          "type": "address[]"
        }
      ],
      "name": "mintForMultipleAddresses",
      "outputs": [],
      "stateMutability": "nonpayable",
      "type": "function"
    },
    {
      "inputs": [
        {
          "internalType": "address",
          "name": "_addr",
          "type": "address"
        }
      ],
      "name": "addToWhiteList",
      "outputs": [],
      "stateMutability": "nonpayable",
      "type": "function"
    },
    {
      "inputs": [
        {
          "internalType": "address[]",
          "name": "_addrs",
          "type": "address[]"
        }
      ],
      "name": "addAMultipleAddressesToWhiteList",
      "outputs": [],
      "stateMutability": "nonpayable",
      "type": "function"
    },
    {
      "inputs": [],
      "name": "whiteListOn",
      "outputs": [],
      "stateMutability": "nonpayable",
      "type": "function"
    },
    {
      "inputs": [],
      "name": "whiteListOff",
      "outputs": [],
      "stateMutability": "nonpayable",
      "type": "function"
    },
    {
      "inputs": [],
      "name": "isItpaused",
      "outputs": [
        {
          "internalType": "bool",
          "name": "",
          "type": "bool"
        }
      ],
      "stateMutability": "view",
      "type": "function"
    },
    {
      "inputs": [
        {
          "internalType": "address",
          "name": "_addr",
          "type": "address"
        }
      ],
      "name": "checkAddressIsWhiteListed",
      "outputs": [
        {
          "internalType": "bool",
          "name": "",
          "type": "bool"
        }
      ],
      "stateMutability": "view",
      "type": "function"
    },
    {
      "inputs": [],
      "name": "getNFTBalance",
      "outputs": [
        {
          "internalType": "uint256",
          "name": "",
          "type": "uint256"
        }
      ],
      "stateMutability": "view",
      "type": "function"
    },
    {
      "inputs": [],
      "name": "getBalance",
      "outputs": [
        {
          "internalType": "uint256",
          "name": "",
          "type": "uint256"
        }
      ],
      "stateMutability": "view",
      "type": "function"
    },
    {
      "inputs": [],
      "name": "getMyNFTBalance",
      "outputs": [
        {
          "internalType": "uint256",
          "name": "",
          "type": "uint256"
        }
      ],
      "stateMutability": "view",
      "type": "function"
    },
    {
      "inputs": [
        {
          "internalType": "address",
          "name": "_addr",
          "type": "address"
        }
      ],
      "name": "getNFTBalanceByAddress",
      "outputs": [
        {
          "internalType": "uint256",
          "name": "",
          "type": "uint256"
        }
      ],
      "stateMutability": "view",
      "type": "function"
    },
    {
      "inputs": [
        {
          "internalType": "uint256",
          "name": "_tokenId",
          "type": "uint256"
        }
      ],
      "name": "tokenURI",
      "outputs": [
        {
          "internalType": "string",
          "name": "",
          "type": "string"
        }
      ],
      "stateMutability": "view",
      "type": "function"
    },
    {
      "inputs": [],
      "name": "pause",
      "outputs": [],
      "stateMutability": "nonpayable",
      "type": "function"
    },
    {
      "inputs": [],
      "name": "unpause",
      "outputs": [],
      "stateMutability": "nonpayable",
      "type": "function"
    },
    {
      "inputs": [
        {
          "internalType": "uint256",
          "name": "_limit",
          "type": "uint256"
        }
      ],
      "name": "setNftPerAddressLimit",
      "outputs": [],
      "stateMutability": "nonpayable",
      "type": "function"
    },
    {
      "inputs": [
        {
          "internalType": "uint256",
          "name": "_limit",
          "type": "uint256"
        }
      ],
      "name": "setMaxMintAmountPerTx",
      "outputs": [],
      "stateMutability": "nonpayable",
      "type": "function"
    },
    {
      "inputs": [
        {
          "internalType": "uint256",
          "name": "_newCost",
          "type": "uint256"
        }
      ],
      "name": "setCost",
      "outputs": [],
      "stateMutability": "nonpayable",
      "type": "function"
    },
    {
      "inputs": [
        {
          "internalType": "uint256",
          "name": "_newMaxMintAmount",
          "type": "uint256"
        }
      ],
      "name": "setmaxMintAmount",
      "outputs": [],
      "stateMutability": "nonpayable",
      "type": "function"
    },
    {
      "inputs": [
        {
          "internalType": "string",
          "name": "_newBaseURI",
          "type": "string"
        }
      ],
      "name": "setBaseURI",
      "outputs": [],
      "stateMutability": "nonpayable",
      "type": "function"
    },
    {
      "inputs": [
        {
          "internalType": "string",
          "name": "_newBaseExtension",
          "type": "string"
        }
      ],
      "name": "setBaseExtension",
      "outputs": [],
      "stateMutability": "nonpayable",
      "type": "function"
    },
    {
      "inputs": [],
      "name": "withdrawAll",
      "outputs": [],
      "stateMutability": "payable",
      "type": "function"
    }
  ],
  "bytecode": "0x608060405260405180602001604052806000815250600a908162000024919062000738565b506040518060400160405280600581526020017f2e6a736f6e000000000000000000000000000000000000000000000000000000815250600b90816200006b919062000738565b5060405180602001604052806000815250600c90816200008c919062000738565b50670de0b6b3a7640000600d55612710600e556032600f55606460105560006011556000601260006101000a81548160ff021916908315150217905550348015620000d657600080fd5b506040516200599a3803806200599a8339818101604052810190620000fc919062000983565b828281600090816200010f919062000738565b50806001908162000121919062000738565b5050506200014462000138620001d660201b60201c565b620001de60201b60201c565b60016007819055506000600860006101000a81548160ff0219169083151502179055506000601460003373ffffffffffffffffffffffffffffffffffffffff1673ffffffffffffffffffffffffffffffffffffffff16815260200190815260200160002081905550620001bd81620002a460201b60201c565b620001cd620002c960201b60201c565b50505062000c05565b600033905090565b6000600660009054906101000a900473ffffffffffffffffffffffffffffffffffffffff16905081600660006101000a81548173ffffffffffffffffffffffffffffffffffffffff021916908373ffffffffffffffffffffffffffffffffffffffff1602179055508173ffffffffffffffffffffffffffffffffffffffff168173ffffffffffffffffffffffffffffffffffffffff167f8be0079c531659141344cd1fd0a4f28419497f9722a3daafe3b4186f6b6457e060405160405180910390a35050565b620002b46200032260201b60201c565b80600a9081620002c5919062000738565b5050565b620002d96200032260201b60201c565b620002e9620003b360201b60201c565b7f28f248c7ec421e96b0412894fe39056f04f89181e681f13c853cd7e6442c1af0604051620003189062000a9d565b60405180910390a1565b62000332620001d660201b60201c565b73ffffffffffffffffffffffffffffffffffffffff16620003586200042860201b60201c565b73ffffffffffffffffffffffffffffffffffffffff1614620003b1576040517f08c379a0000000000000000000000000000000000000000000000000000000008152600401620003a89062000b0f565b60405180910390fd5b565b620003c36200045260201b60201c565b6001600860006101000a81548160ff0219169083151502179055507f62e78cea01bee320cd4e420270b5ea74000d11b0c9f74754ebdbfc544b05a2586200040f620001d660201b60201c565b6040516200041e919062000b76565b60405180910390a1565b6000600660009054906101000a900473ffffffffffffffffffffffffffffffffffffffff16905090565b62000462620004a760201b60201c565b15620004a5576040517f08c379a00000000000000000000000000000000000000000000000000000000081526004016200049c9062000be3565b60405180910390fd5b565b6000600860009054906101000a900460ff16905090565b600081519050919050565b7f4e487b7100000000000000000000000000000000000000000000000000000000600052604160045260246000fd5b7f4e487b7100000000000000000000000000000000000000000000000000000000600052602260045260246000fd5b600060028204905060018216806200054057607f821691505b602082108103620005565762000555620004f8565b5b50919050565b60008190508160005260206000209050919050565b60006020601f8301049050919050565b600082821b905092915050565b600060088302620005c07fffffffffffffffffffffffffffffffffffffffffffffffffffffffffffffffff8262000581565b620005cc868362000581565b95508019841693508086168417925050509392505050565b6000819050919050565b6000819050919050565b600062000619620006136200060d84620005e4565b620005ee565b620005e4565b9050919050565b6000819050919050565b6200063583620005f8565b6200064d620006448262000620565b8484546200058e565b825550505050565b600090565b6200066462000655565b620006718184846200062a565b505050565b5b8181101562000699576200068d6000826200065a565b60018101905062000677565b5050565b601f821115620006e857620006b2816200055c565b620006bd8462000571565b81016020851015620006cd578190505b620006e5620006dc8562000571565b83018262000676565b50505b505050565b600082821c905092915050565b60006200070d60001984600802620006ed565b1980831691505092915050565b6000620007288383620006fa565b9150826002028217905092915050565b6200074382620004be565b67ffffffffffffffff8111156200075f576200075e620004c9565b5b6200076b825462000527565b620007788282856200069d565b600060209050601f831160018114620007b057600084156200079b578287015190505b620007a785826200071a565b86555062000817565b601f198416620007c0866200055c565b60005b82811015620007ea57848901518255600182019150602085019450602081019050620007c3565b868310156200080a578489015162000806601f891682620006fa565b8355505b6001600288020188555050505b505050505050565b6000604051905090565b600080fd5b600080fd5b600080fd5b600080fd5b6000601f19601f8301169050919050565b62000859826200083d565b810181811067ffffffffffffffff821117156200087b576200087a620004c9565b5b80604052505050565b6000620008906200081f565b90506200089e82826200084e565b919050565b600067ffffffffffffffff821115620008c157620008c0620004c9565b5b620008cc826200083d565b9050602081019050919050565b60005b83811015620008f9578082015181840152602081019050620008dc565b60008484015250505050565b60006200091c6200091684620008a3565b62000884565b9050828152602081018484840111156200093b576200093a62000838565b5b62000948848285620008d9565b509392505050565b600082601f83011262000968576200096762000833565b5b81516200097a84826020860162000905565b91505092915050565b6000806000606084860312156200099f576200099e62000829565b5b600084015167ffffffffffffffff811115620009c057620009bf6200082e565b5b620009ce8682870162000950565b935050602084015167ffffffffffffffff811115620009f257620009f16200082e565b5b62000a008682870162000950565b925050604084015167ffffffffffffffff81111562000a245762000a236200082e565b5b62000a328682870162000950565b9150509250925092565b600082825260208201905092915050565b7f436f6e74726163742069732073657420746f2050617573652021000000000000600082015250565b600062000a85601a8362000a3c565b915062000a928262000a4d565b602082019050919050565b6000602082019050818103600083015262000ab88162000a76565b9050919050565b7f4f776e61626c653a2063616c6c6572206973206e6f7420746865206f776e6572600082015250565b600062000af760208362000a3c565b915062000b048262000abf565b602082019050919050565b6000602082019050818103600083015262000b2a8162000ae8565b9050919050565b600073ffffffffffffffffffffffffffffffffffffffff82169050919050565b600062000b5e8262000b31565b9050919050565b62000b708162000b51565b82525050565b600060208201905062000b8d600083018462000b65565b92915050565b7f5061757361626c653a2070617573656400000000000000000000000000000000600082015250565b600062000bcb60108362000a3c565b915062000bd88262000b93565b602082019050919050565b6000602082019050818103600083015262000bfe8162000bbc565b9050919050565b614d858062000c156000396000f3fe6080604052600436106102cd5760003560e01c8063784fa4c811610175578063a45ba8e7116100dc578063d0eb26b011610095578063da3ef23f1161006f578063da3ef23f14610a96578063e985e9c514610abf578063f2fde38b14610afc578063fd11e6d214610b25576102d4565b8063d0eb26b014610a05578063d5abeb0114610a2e578063d936547e14610a59576102d4565b8063a45ba8e7146108f5578063b071401b14610920578063b88d4fde14610949578063b9f528dc14610972578063ba7d2c761461099d578063c87b56dd146109c8576102d4565b806391f85b371161012e57806391f85b37146107f257806394354fd01461082f57806395d89b411461085a5780639c70b51214610885578063a0712d68146108b0578063a22cb465146108cc576102d4565b8063784fa4c8146107175780637f00c7a6146107545780638456cb591461077d578063853828b61461079457806389c886a51461079e5780638da5cb5b146107c7576102d4565b80633615a14e116102345780635503a0e8116101ed57806362b99ad4116101c757806362b99ad41461065b5780636352211e1461068657806370a08231146106c3578063715018a614610700576102d4565b80635503a0e8146105dc57806355f804b3146106075780635c975abb14610630576102d4565b80633615a14e146104f85780633f4ba83a1461052157806342842e0e1461053857806344a0d68a1461056157806347ee03941461058a57806352823ec6146105b3576102d4565b806313faede61161028657806313faede6146103fa57806318cae2691461042557806323b872dd146104625780632ddcb21f1461048b578063319f5343146104b65780633279a45f146104e1576102d4565b806301ffc9a7146102d657806306fdde0314610313578063081812fc1461033e578063095ea7b31461037b57806311413843146103a457806312065fe0146103cf576102d4565b366102d457005b005b3480156102e257600080fd5b506102fd60048036038101906102f891906131a9565b610b3c565b60405161030a91906131f1565b60405180910390f35b34801561031f57600080fd5b50610328610c1e565b604051610335919061329c565b60405180910390f35b34801561034a57600080fd5b50610365600480360381019061036091906132f4565b610cb0565b6040516103729190613362565b60405180910390f35b34801561038757600080fd5b506103a2600480360381019061039d91906133a9565b610cf6565b005b3480156103b057600080fd5b506103b9610e0d565b6040516103c691906133f8565b60405180910390f35b3480156103db57600080fd5b506103e4610e1e565b6040516103f191906133f8565b60405180910390f35b34801561040657600080fd5b5061040f610e2e565b60405161041c91906133f8565b60405180910390f35b34801561043157600080fd5b5061044c60048036038101906104479190613413565b610e34565b60405161045991906133f8565b60405180910390f35b34801561046e57600080fd5b5061048960048036038101906104849190613440565b610e4c565b005b34801561049757600080fd5b506104a0610eac565b6040516104ad91906133f8565b60405180910390f35b3480156104c257600080fd5b506104cb610eb2565b6040516104d891906131f1565b60405180910390f35b3480156104ed57600080fd5b506104f6610ec1565b005b34801561050457600080fd5b5061051f600480360381019061051a9190613493565b610ee6565b005b34801561052d57600080fd5b506105366110ae565b005b34801561054457600080fd5b5061055f600480360381019061055a9190613440565b6110f5565b005b34801561056d57600080fd5b50610588600480360381019061058391906132f4565b611115565b005b34801561059657600080fd5b506105b160048036038101906105ac9190613413565b611127565b005b3480156105bf57600080fd5b506105da60048036038101906105d5919061361b565b61118a565b005b3480156105e857600080fd5b506105f161138c565b6040516105fe919061329c565b60405180910390f35b34801561061357600080fd5b5061062e6004803603810190610629919061372c565b61141a565b005b34801561063c57600080fd5b50610645611435565b60405161065291906131f1565b60405180910390f35b34801561066757600080fd5b5061067061144c565b60405161067d919061329c565b60405180910390f35b34801561069257600080fd5b506106ad60048036038101906106a891906132f4565b6114da565b6040516106ba9190613362565b60405180910390f35b3480156106cf57600080fd5b506106ea60048036038101906106e59190613413565b61158b565b6040516106f791906133f8565b60405180910390f35b34801561070c57600080fd5b50610715611642565b005b34801561072357600080fd5b5061073e60048036038101906107399190613413565b611656565b60405161074b91906131f1565b60405180910390f35b34801561076057600080fd5b5061077b600480360381019061077691906132f4565b611668565b005b34801561078957600080fd5b5061079261167a565b005b61079c6116c1565b005b3480156107aa57600080fd5b506107c560048036038101906107c09190613775565b611749565b005b3480156107d357600080fd5b506107dc6117e6565b6040516107e99190613362565b60405180910390f35b3480156107fe57600080fd5b5061081960048036038101906108149190613413565b611810565b60405161082691906133f8565b60405180910390f35b34801561083b57600080fd5b50610844611859565b60405161085191906133f8565b60405180910390f35b34801561086657600080fd5b5061086f61185f565b60405161087c919061329c565b60405180910390f35b34801561089157600080fd5b5061089a6118f1565b6040516108a791906131f1565b60405180910390f35b6108ca60048036038101906108c591906132f4565b611904565b005b3480156108d857600080fd5b506108f360048036038101906108ee91906137ea565b611d35565b005b34801561090157600080fd5b5061090a611d4b565b604051610917919061329c565b60405180910390f35b34801561092c57600080fd5b50610947600480360381019061094291906132f4565b611dd9565b005b34801561095557600080fd5b50610970600480360381019061096b91906138cb565b611deb565b005b34801561097e57600080fd5b50610987611e4d565b60405161099491906133f8565b60405180910390f35b3480156109a957600080fd5b506109b2611e94565b6040516109bf91906133f8565b60405180910390f35b3480156109d457600080fd5b506109ef60048036038101906109ea91906132f4565b611e9a565b6040516109fc919061329c565b60405180910390f35b348015610a1157600080fd5b50610a2c6004803603810190610a2791906132f4565b611f44565b005b348015610a3a57600080fd5b50610a43611f56565b604051610a5091906133f8565b60405180910390f35b348015610a6557600080fd5b50610a806004803603810190610a7b9190613413565b611f5c565b604051610a8d91906131f1565b60405180910390f35b348015610aa257600080fd5b50610abd6004803603810190610ab8919061372c565b611f7c565b005b348015610acb57600080fd5b50610ae66004803603810190610ae1919061394e565b611f97565b604051610af391906131f1565b60405180910390f35b348015610b0857600080fd5b50610b236004803603810190610b1e9190613413565b61202b565b005b348015610b3157600080fd5b50610b3a6120ae565b005b60007f80ac58cd000000000000000000000000000000000000000000000000000000007bffffffffffffffffffffffffffffffffffffffffffffffffffffffff1916827bffffffffffffffffffffffffffffffffffffffffffffffffffffffff19161480610c0757507f5b5e139f000000000000000000000000000000000000000000000000000000007bffffffffffffffffffffffffffffffffffffffffffffffffffffffff1916827bffffffffffffffffffffffffffffffffffffffffffffffffffffffff1916145b80610c175750610c16826120d3565b5b9050919050565b606060008054610c2d906139bd565b80601f0160208091040260200160405190810160405280929190818152602001828054610c59906139bd565b8015610ca65780601f10610c7b57610100808354040283529160200191610ca6565b820191906000526020600020905b815481529060010190602001808311610c8957829003601f168201915b5050505050905090565b6000610cbb8261213d565b6004600083815260200190815260200160002060009054906101000a900473ffffffffffffffffffffffffffffffffffffffff169050919050565b6000610d01826114da565b90508073ffffffffffffffffffffffffffffffffffffffff168373ffffffffffffffffffffffffffffffffffffffff1603610d71576040517f08c379a0000000000000000000000000000000000000000000000000000000008152600401610d6890613a60565b60405180910390fd5b8073ffffffffffffffffffffffffffffffffffffffff16610d90612188565b73ffffffffffffffffffffffffffffffffffffffff161480610dbf5750610dbe81610db9612188565b611f97565b5b610dfe576040517f08c379a0000000000000000000000000000000000000000000000000000000008152600401610df590613af2565b60405180910390fd5b610e088383612190565b505050565b6000610e196009612249565b905090565b6000610e28612257565b47905090565b600d5481565b60146020528060005260406000206000915090505481565b610e5d610e57612188565b826122d5565b610e9c576040517f08c379a0000000000000000000000000000000000000000000000000000000008152600401610e9390613b84565b60405180910390fd5b610ea783838361236a565b505050565b60115481565b6000610ebc611435565b905090565b610ec9612257565b6000601260006101000a81548160ff021916908315150217905550565b81610eef611435565b15610f2f576040517f08c379a0000000000000000000000000000000000000000000000000000000008152600401610f2690613bf0565b60405180910390fd5b600081118015610f415750600f548111155b610f80576040517f08c379a0000000000000000000000000000000000000000000000000000000008152600401610f7790613c5c565b60405180910390fd5b600081118015610f925750600f548111155b610fce577fd517d195fb82e76cdcdd463af6831b6d695e9224bc308dd2050ad79da23cdd3533604051610fc59190613c7c565b60405180910390a15b601154600e54610fde9190613cd9565b81610fe96009612249565b610ff39190613d0d565b1115611034576040517f08c379a000000000000000000000000000000000000000000000000000000000815260040161102b90613d8d565b60405180910390fd5b601154600e546110449190613cd9565b8161104f6009612249565b6110599190613d0d565b1115611097577f662bcdae78af2e7e1dcec0c41de805c440fc23ec153fa0a1e975e1faabc2fae53360405161108e9190613dad565b60405180910390a15b61109f612257565b6110a982846125d0565b505050565b6110b6612257565b6110be612649565b7f2ea30c1e305aa59320dafe36b8a006bfcd8416198d33bee3e8a01f29d408f0606040516110eb90613e27565b60405180910390a1565b61111083838360405180602001604052806000815250611deb565b505050565b61111d612257565b80600d8190555050565b61112f612257565b6001601360008373ffffffffffffffffffffffffffffffffffffffff1673ffffffffffffffffffffffffffffffffffffffff16815260200190815260200160002060006101000a81548160ff02191690831515021790555050565b81611193611435565b156111d3576040517f08c379a00000000000000000000000000000000000000000000000000000000081526004016111ca90613bf0565b60405180910390fd5b6000811180156111e55750600f548111155b611224576040517f08c379a000000000000000000000000000000000000000000000000000000000815260040161121b90613c5c565b60405180910390fd5b6000811180156112365750600f548111155b611272577fd517d195fb82e76cdcdd463af6831b6d695e9224bc308dd2050ad79da23cdd35336040516112699190613c7c565b60405180910390a15b601154600e546112829190613cd9565b8161128d6009612249565b6112979190613d0d565b11156112d8576040517f08c379a00000000000000000000000000000000000000000000000000000000081526004016112cf90613d8d565b60405180910390fd5b601154600e546112e89190613cd9565b816112f36009612249565b6112fd9190613d0d565b111561133b577f662bcdae78af2e7e1dcec0c41de805c440fc23ec153fa0a1e975e1faabc2fae5336040516113329190613dad565b60405180910390a15b611343612257565b60005b82518110156113865761137383828151811061136557611364613e47565b5b6020026020010151856125d0565b808061137e90613e76565b915050611346565b50505050565b600b8054611399906139bd565b80601f01602080910402602001604051908101604052809291908181526020018280546113c5906139bd565b80156114125780601f106113e757610100808354040283529160200191611412565b820191906000526020600020905b8154815290600101906020018083116113f557829003601f168201915b505050505081565b611422612257565b80600a9081611431919061406a565b5050565b6000600860009054906101000a900460ff16905090565b600a8054611459906139bd565b80601f0160208091040260200160405190810160405280929190818152602001828054611485906139bd565b80156114d25780601f106114a7576101008083540402835291602001916114d2565b820191906000526020600020905b8154815290600101906020018083116114b557829003601f168201915b505050505081565b6000806002600084815260200190815260200160002060009054906101000a900473ffffffffffffffffffffffffffffffffffffffff169050600073ffffffffffffffffffffffffffffffffffffffff168173ffffffffffffffffffffffffffffffffffffffff1603611582576040517f08c379a000000000000000000000000000000000000000000000000000000000815260040161157990614188565b60405180910390fd5b80915050919050565b60008073ffffffffffffffffffffffffffffffffffffffff168273ffffffffffffffffffffffffffffffffffffffff16036115fb576040517f08c379a00000000000000000000000000000000000000000000000000000000081526004016115f29061421a565b60405180910390fd5b600360008373ffffffffffffffffffffffffffffffffffffffff1673ffffffffffffffffffffffffffffffffffffffff168152602001908152602001600020549050919050565b61164a612257565b61165460006126ac565b565b600061166182612772565b9050919050565b611670612257565b8060118190555050565b611682612257565b61168a612805565b7f28f248c7ec421e96b0412894fe39056f04f89181e681f13c853cd7e6442c1af06040516116b790614286565b60405180910390a1565b6116c9612257565b60006116d36117e6565b73ffffffffffffffffffffffffffffffffffffffff16476040516116f6906142d7565b60006040518083038185875af1925050503d8060008114611733576040519150601f19603f3d011682016040523d82523d6000602084013e611738565b606091505b505090508061174657600080fd5b50565b611751612257565b60005b81518110156117e25760016013600084848151811061177657611775613e47565b5b602002602001015173ffffffffffffffffffffffffffffffffffffffff1673ffffffffffffffffffffffffffffffffffffffff16815260200190815260200160002060006101000a81548160ff02191690831515021790555080806117da90613e76565b915050611754565b5050565b6000600660009054906101000a900473ffffffffffffffffffffffffffffffffffffffff16905090565b6000601460008373ffffffffffffffffffffffffffffffffffffffff1673ffffffffffffffffffffffffffffffffffffffff168152602001908152602001600020549050919050565b600f5481565b60606001805461186e906139bd565b80601f016020809104026020016040519081016040528092919081815260200182805461189a906139bd565b80156118e75780601f106118bc576101008083540402835291602001916118e7565b820191906000526020600020905b8154815290600101906020018083116118ca57829003601f168201915b5050505050905090565b601260009054906101000a900460ff1681565b8061190d611435565b1561194d576040517f08c379a000000000000000000000000000000000000000000000000000000000815260040161194490613bf0565b60405180910390fd5b60008111801561195f5750600f548111155b61199e576040517f08c379a000000000000000000000000000000000000000000000000000000000815260040161199590613c5c565b60405180910390fd5b6000811180156119b05750600f548111155b6119ec577fd517d195fb82e76cdcdd463af6831b6d695e9224bc308dd2050ad79da23cdd35336040516119e39190613c7c565b60405180910390a15b601154600e546119fc9190613cd9565b81611a076009612249565b611a119190613d0d565b1115611a52576040517f08c379a0000000000000000000000000000000000000000000000000000000008152600401611a4990613d8d565b60405180910390fd5b601154600e54611a629190613cd9565b81611a6d6009612249565b611a779190613d0d565b1115611ab5577f662bcdae78af2e7e1dcec0c41de805c440fc23ec153fa0a1e975e1faabc2fae533604051611aac9190613dad565b60405180910390a15b611abd6117e6565b73ffffffffffffffffffffffffffffffffffffffff163373ffffffffffffffffffffffffffffffffffffffff1614611d275760011515601260009054906101000a900460ff16151503611c895760011515611b1733612772565b151514611b59576040517f08c379a0000000000000000000000000000000000000000000000000000000008152600401611b5090614338565b60405180910390fd5b60011515611b6633612772565b15151503611ba6577f3a3121f9d9d8b29e8a3746760f5189193ae886a73a44b0e86a70a828fa0c622533604051611b9d9190614358565b60405180910390a15b6000601460003373ffffffffffffffffffffffffffffffffffffffff1673ffffffffffffffffffffffffffffffffffffffff1681526020019081526020016000205490506010548382611bf99190613d0d565b1115611c3a576040517f08c379a0000000000000000000000000000000000000000000000000000000008152600401611c31906143d2565b60405180910390fd5b6010548382611c499190613d0d565b1115611c87577ff311b196bb1750d6557091f98f5d9f1155c9d6fcf039089896a424626f9db46333604051611c7e91906143f2565b60405180910390a15b505b81600d54611c979190614420565b341015611cd9576040517f08c379a0000000000000000000000000000000000000000000000000000000008152600401611cd0906144c6565b60405180910390fd5b81600d54611ce79190614420565b341015611d26577fd70eac9b43bacf126bf0f095ed2a31d2ae3e6fca6cb7742de90cd9adda95f87733604051611d1d9190614532565b60405180910390a15b5b611d3133836125d0565b5050565b611d47611d40612188565b8383612868565b5050565b600c8054611d58906139bd565b80601f0160208091040260200160405190810160405280929190818152602001828054611d84906139bd565b8015611dd15780601f10611da657610100808354040283529160200191611dd1565b820191906000526020600020905b815481529060010190602001808311611db457829003601f168201915b505050505081565b611de1612257565b80600f8190555050565b611dfc611df6612188565b836122d5565b611e3b576040517f08c379a0000000000000000000000000000000000000000000000000000000008152600401611e3290613b84565b60405180910390fd5b611e47848484846129d4565b50505050565b6000601460003373ffffffffffffffffffffffffffffffffffffffff1673ffffffffffffffffffffffffffffffffffffffff16815260200190815260200160002054905090565b60105481565b6060611ea582612a30565b611ee4576040517f08c379a0000000000000000000000000000000000000000000000000000000008152600401611edb906145d2565b60405180910390fd5b6000611eee612a9c565b90506000815111611f0e5760405180602001604052806000815250611f3c565b80611f1884612b2e565b600b604051602001611f2c939291906146b1565b6040516020818303038152906040525b915050919050565b611f4c612257565b8060108190555050565b600e5481565b60136020528060005260406000206000915054906101000a900460ff1681565b611f84612257565b80600b9081611f93919061406a565b5050565b6000600560008473ffffffffffffffffffffffffffffffffffffffff1673ffffffffffffffffffffffffffffffffffffffff16815260200190815260200160002060008373ffffffffffffffffffffffffffffffffffffffff1673ffffffffffffffffffffffffffffffffffffffff16815260200190815260200160002060009054906101000a900460ff16905092915050565b612033612257565b600073ffffffffffffffffffffffffffffffffffffffff168173ffffffffffffffffffffffffffffffffffffffff16036120a2576040517f08c379a000000000000000000000000000000000000000000000000000000000815260040161209990614754565b60405180910390fd5b6120ab816126ac565b50565b6120b6612257565b6001601260006101000a81548160ff021916908315150217905550565b60007f01ffc9a7000000000000000000000000000000000000000000000000000000007bffffffffffffffffffffffffffffffffffffffffffffffffffffffff1916827bffffffffffffffffffffffffffffffffffffffffffffffffffffffff1916149050919050565b61214681612a30565b612185576040517f08c379a000000000000000000000000000000000000000000000000000000000815260040161217c90614188565b60405180910390fd5b50565b600033905090565b816004600083815260200190815260200160002060006101000a81548173ffffffffffffffffffffffffffffffffffffffff021916908373ffffffffffffffffffffffffffffffffffffffff160217905550808273ffffffffffffffffffffffffffffffffffffffff16612203836114da565b73ffffffffffffffffffffffffffffffffffffffff167f8c5be1e5ebec7d5bd14f71427d1e84f3dd0314c0f7b2291e5b200ac8c7c3b92560405160405180910390a45050565b600081600001549050919050565b61225f612188565b73ffffffffffffffffffffffffffffffffffffffff1661227d6117e6565b73ffffffffffffffffffffffffffffffffffffffff16146122d3576040517f08c379a00000000000000000000000000000000000000000000000000000000081526004016122ca906147c0565b60405180910390fd5b565b6000806122e1836114da565b90508073ffffffffffffffffffffffffffffffffffffffff168473ffffffffffffffffffffffffffffffffffffffff16148061232357506123228185611f97565b5b8061236157508373ffffffffffffffffffffffffffffffffffffffff1661234984610cb0565b73ffffffffffffffffffffffffffffffffffffffff16145b91505092915050565b8273ffffffffffffffffffffffffffffffffffffffff1661238a826114da565b73ffffffffffffffffffffffffffffffffffffffff16146123e0576040517f08c379a00000000000000000000000000000000000000000000000000000000081526004016123d790614852565b60405180910390fd5b600073ffffffffffffffffffffffffffffffffffffffff168273ffffffffffffffffffffffffffffffffffffffff160361244f576040517f08c379a0000000000000000000000000000000000000000000000000000000008152600401612446906148e4565b60405180910390fd5b61245a838383612c8e565b612465600082612190565b6001600360008573ffffffffffffffffffffffffffffffffffffffff1673ffffffffffffffffffffffffffffffffffffffff16815260200190815260200160002060008282546124b59190613cd9565b925050819055506001600360008473ffffffffffffffffffffffffffffffffffffffff1673ffffffffffffffffffffffffffffffffffffffff168152602001908152602001600020600082825461250c9190613d0d565b92505081905550816002600083815260200190815260200160002060006101000a81548173ffffffffffffffffffffffffffffffffffffffff021916908373ffffffffffffffffffffffffffffffffffffffff160217905550808273ffffffffffffffffffffffffffffffffffffffff168473ffffffffffffffffffffffffffffffffffffffff167fddf252ad1be2c89b69c2b068fc378daa952ba7f163c4a11628f55a4df523b3ef60405160405180910390a46125cb838383612c93565b505050565b60005b8181101561260b576125e56009612c98565b6125f8836125f36009612249565b612cae565b808061260390613e76565b9150506125d3565b507f8543a85578cea47e5b503de67b44ca7db3d3078db10eccfb581009e14afb2cb6828260405161263d929190614904565b60405180910390a15050565b612651612ccc565b6000600860006101000a81548160ff0219169083151502179055507f5db9ee0a495bf2e6ff9c91a7834c1ba4fdd244a5e8aa4e537bd38aeae4b073aa612695612188565b6040516126a29190613362565b60405180910390a1565b6000600660009054906101000a900473ffffffffffffffffffffffffffffffffffffffff16905081600660006101000a81548173ffffffffffffffffffffffffffffffffffffffff021916908373ffffffffffffffffffffffffffffffffffffffff1602179055508173ffffffffffffffffffffffffffffffffffffffff168173ffffffffffffffffffffffffffffffffffffffff167f8be0079c531659141344cd1fd0a4f28419497f9722a3daafe3b4186f6b6457e060405160405180910390a35050565b6000601360008373ffffffffffffffffffffffffffffffffffffffff1673ffffffffffffffffffffffffffffffffffffffff16815260200190815260200160002060009054906101000a900460ff16806127fe57506127cf6117e6565b73ffffffffffffffffffffffffffffffffffffffff168273ffffffffffffffffffffffffffffffffffffffff16145b9050919050565b61280d612d15565b6001600860006101000a81548160ff0219169083151502179055507f62e78cea01bee320cd4e420270b5ea74000d11b0c9f74754ebdbfc544b05a258612851612188565b60405161285e9190613362565b60405180910390a1565b8173ffffffffffffffffffffffffffffffffffffffff168373ffffffffffffffffffffffffffffffffffffffff16036128d6576040517f08c379a00000000000000000000000000000000000000000000000000000000081526004016128cd90614979565b60405180910390fd5b80600560008573ffffffffffffffffffffffffffffffffffffffff1673ffffffffffffffffffffffffffffffffffffffff16815260200190815260200160002060008473ffffffffffffffffffffffffffffffffffffffff1673ffffffffffffffffffffffffffffffffffffffff16815260200190815260200160002060006101000a81548160ff0219169083151502179055508173ffffffffffffffffffffffffffffffffffffffff168373ffffffffffffffffffffffffffffffffffffffff167f17307eab39ab6107e8899845ad3d59bd9653f200f220920489ca2b5937696c31836040516129c791906131f1565b60405180910390a3505050565b6129df84848461236a565b6129eb84848484612d5f565b612a2a576040517f08c379a0000000000000000000000000000000000000000000000000000000008152600401612a2190614a0b565b60405180910390fd5b50505050565b60008073ffffffffffffffffffffffffffffffffffffffff166002600084815260200190815260200160002060009054906101000a900473ffffffffffffffffffffffffffffffffffffffff1673ffffffffffffffffffffffffffffffffffffffff1614159050919050565b6060600a8054612aab906139bd565b80601f0160208091040260200160405190810160405280929190818152602001828054612ad7906139bd565b8015612b245780601f10612af957610100808354040283529160200191612b24565b820191906000526020600020905b815481529060010190602001808311612b0757829003601f168201915b5050505050905090565b606060008203612b75576040518060400160405280600181526020017f30000000000000000000000000000000000000000000000000000000000000008152509050612c89565b600082905060005b60008214612ba7578080612b9090613e76565b915050600a82612ba09190614a5a565b9150612b7d565b60008167ffffffffffffffff811115612bc357612bc26134d8565b5b6040519080825280601f01601f191660200182016040528015612bf55781602001600182028036833780820191505090505b5090505b60008514612c8257600182612c0e9190613cd9565b9150600a85612c1d9190614a8b565b6030612c299190613d0d565b60f81b818381518110612c3f57612c3e613e47565b5b60200101907effffffffffffffffffffffffffffffffffffffffffffffffffffffffffffff1916908160001a905350600a85612c7b9190614a5a565b9450612bf9565b8093505050505b919050565b505050565b505050565b6001816000016000828254019250508190555050565b612cc8828260405180602001604052806000815250612ee6565b5050565b612cd4611435565b612d13576040517f08c379a0000000000000000000000000000000000000000000000000000000008152600401612d0a90614b08565b60405180910390fd5b565b612d1d611435565b15612d5d576040517f08c379a0000000000000000000000000000000000000000000000000000000008152600401612d5490614b74565b60405180910390fd5b565b6000612d808473ffffffffffffffffffffffffffffffffffffffff16612f41565b15612ed9578373ffffffffffffffffffffffffffffffffffffffff1663150b7a02612da9612188565b8786866040518563ffffffff1660e01b8152600401612dcb9493929190614be9565b6020604051808303816000875af1925050508015612e0757506040513d601f19601f82011682018060405250810190612e049190614c4a565b60015b612e89573d8060008114612e37576040519150601f19603f3d011682016040523d82523d6000602084013e612e3c565b606091505b506000815103612e81576040517f08c379a0000000000000000000000000000000000000000000000000000000008152600401612e7890614a0b565b60405180910390fd5b805181602001fd5b63150b7a0260e01b7bffffffffffffffffffffffffffffffffffffffffffffffffffffffff1916817bffffffffffffffffffffffffffffffffffffffffffffffffffffffff191614915050612ede565b600190505b949350505050565b612ef08383612f64565b612efd6000848484612d5f565b612f3c576040517f08c379a0000000000000000000000000000000000000000000000000000000008152600401612f3390614a0b565b60405180910390fd5b505050565b6000808273ffffffffffffffffffffffffffffffffffffffff163b119050919050565b600073ffffffffffffffffffffffffffffffffffffffff168273ffffffffffffffffffffffffffffffffffffffff1603612fd3576040517f08c379a0000000000000000000000000000000000000000000000000000000008152600401612fca90614cc3565b60405180910390fd5b612fdc81612a30565b1561301c576040517f08c379a000000000000000000000000000000000000000000000000000000000815260040161301390614d2f565b60405180910390fd5b61302860008383612c8e565b6001600360008473ffffffffffffffffffffffffffffffffffffffff1673ffffffffffffffffffffffffffffffffffffffff16815260200190815260200160002060008282546130789190613d0d565b92505081905550816002600083815260200190815260200160002060006101000a81548173ffffffffffffffffffffffffffffffffffffffff021916908373ffffffffffffffffffffffffffffffffffffffff160217905550808273ffffffffffffffffffffffffffffffffffffffff16600073ffffffffffffffffffffffffffffffffffffffff167fddf252ad1be2c89b69c2b068fc378daa952ba7f163c4a11628f55a4df523b3ef60405160405180910390a461313960008383612c93565b5050565b6000604051905090565b600080fd5b600080fd5b60007fffffffff0000000000000000000000000000000000000000000000000000000082169050919050565b61318681613151565b811461319157600080fd5b50565b6000813590506131a38161317d565b92915050565b6000602082840312156131bf576131be613147565b5b60006131cd84828501613194565b91505092915050565b60008115159050919050565b6131eb816131d6565b82525050565b600060208201905061320660008301846131e2565b92915050565b600081519050919050565b600082825260208201905092915050565b60005b8381101561324657808201518184015260208101905061322b565b60008484015250505050565b6000601f19601f8301169050919050565b600061326e8261320c565b6132788185613217565b9350613288818560208601613228565b61329181613252565b840191505092915050565b600060208201905081810360008301526132b68184613263565b905092915050565b6000819050919050565b6132d1816132be565b81146132dc57600080fd5b50565b6000813590506132ee816132c8565b92915050565b60006020828403121561330a57613309613147565b5b6000613318848285016132df565b91505092915050565b600073ffffffffffffffffffffffffffffffffffffffff82169050919050565b600061334c82613321565b9050919050565b61335c81613341565b82525050565b60006020820190506133776000830184613353565b92915050565b61338681613341565b811461339157600080fd5b50565b6000813590506133a38161337d565b92915050565b600080604083850312156133c0576133bf613147565b5b60006133ce85828601613394565b92505060206133df858286016132df565b9150509250929050565b6133f2816132be565b82525050565b600060208201905061340d60008301846133e9565b92915050565b60006020828403121561342957613428613147565b5b600061343784828501613394565b91505092915050565b60008060006060848603121561345957613458613147565b5b600061346786828701613394565b935050602061347886828701613394565b9250506040613489868287016132df565b9150509250925092565b600080604083850312156134aa576134a9613147565b5b60006134b8858286016132df565b92505060206134c985828601613394565b9150509250929050565b600080fd5b7f4e487b7100000000000000000000000000000000000000000000000000000000600052604160045260246000fd5b61351082613252565b810181811067ffffffffffffffff8211171561352f5761352e6134d8565b5b80604052505050565b600061354261313d565b905061354e8282613507565b919050565b600067ffffffffffffffff82111561356e5761356d6134d8565b5b602082029050602081019050919050565b600080fd5b600061359761359284613553565b613538565b905080838252602082019050602084028301858111156135ba576135b961357f565b5b835b818110156135e357806135cf8882613394565b8452602084019350506020810190506135bc565b5050509392505050565b600082601f830112613602576136016134d3565b5b8135613612848260208601613584565b91505092915050565b6000806040838503121561363257613631613147565b5b6000613640858286016132df565b925050602083013567ffffffffffffffff8111156136615761366061314c565b5b61366d858286016135ed565b9150509250929050565b600080fd5b600067ffffffffffffffff821115613697576136966134d8565b5b6136a082613252565b9050602081019050919050565b82818337600083830152505050565b60006136cf6136ca8461367c565b613538565b9050828152602081018484840111156136eb576136ea613677565b5b6136f68482856136ad565b509392505050565b600082601f830112613713576137126134d3565b5b81356137238482602086016136bc565b91505092915050565b60006020828403121561374257613741613147565b5b600082013567ffffffffffffffff8111156137605761375f61314c565b5b61376c848285016136fe565b91505092915050565b60006020828403121561378b5761378a613147565b5b600082013567ffffffffffffffff8111156137a9576137a861314c565b5b6137b5848285016135ed565b91505092915050565b6137c7816131d6565b81146137d257600080fd5b50565b6000813590506137e4816137be565b92915050565b6000806040838503121561380157613800613147565b5b600061380f85828601613394565b9250506020613820858286016137d5565b9150509250929050565b600067ffffffffffffffff821115613845576138446134d8565b5b61384e82613252565b9050602081019050919050565b600061386e6138698461382a565b613538565b90508281526020810184848401111561388a57613889613677565b5b6138958482856136ad565b509392505050565b600082601f8301126138b2576138b16134d3565b5b81356138c284826020860161385b565b91505092915050565b600080600080608085870312156138e5576138e4613147565b5b60006138f387828801613394565b945050602061390487828801613394565b9350506040613915878288016132df565b925050606085013567ffffffffffffffff8111156139365761393561314c565b5b6139428782880161389d565b91505092959194509250565b6000806040838503121561396557613964613147565b5b600061397385828601613394565b925050602061398485828601613394565b9150509250929050565b7f4e487b7100000000000000000000000000000000000000000000000000000000600052602260045260246000fd5b600060028204905060018216806139d557607f821691505b6020821081036139e8576139e761398e565b5b50919050565b7f4552433732313a20617070726f76616c20746f2063757272656e74206f776e6560008201527f7200000000000000000000000000000000000000000000000000000000000000602082015250565b6000613a4a602183613217565b9150613a55826139ee565b604082019050919050565b60006020820190508181036000830152613a7981613a3d565b9050919050565b7f4552433732313a20617070726f76652063616c6c6572206973206e6f7420746f60008201527f6b656e206f776e6572206e6f7220617070726f76656420666f7220616c6c0000602082015250565b6000613adc603e83613217565b9150613ae782613a80565b604082019050919050565b60006020820190508181036000830152613b0b81613acf565b9050919050565b7f4552433732313a2063616c6c6572206973206e6f7420746f6b656e206f776e6560008201527f72206e6f7220617070726f766564000000000000000000000000000000000000602082015250565b6000613b6e602e83613217565b9150613b7982613b12565b604082019050919050565b60006020820190508181036000830152613b9d81613b61565b9050919050565b7f54686520636f6e74726163742069732070617573656400000000000000000000600082015250565b6000613bda601683613217565b9150613be582613ba4565b602082019050919050565b60006020820190508181036000830152613c0981613bcd565b9050919050565b7f496e76616c6964206d696e7420616d6f756e7421000000000000000000000000600082015250565b6000613c46601483613217565b9150613c5182613c10565b602082019050919050565b60006020820190508181036000830152613c7581613c39565b9050919050565b6000604082019050613c916000830184613353565b8181036020830152613ca281613c39565b905092915050565b7f4e487b7100000000000000000000000000000000000000000000000000000000600052601160045260246000fd5b6000613ce4826132be565b9150613cef836132be565b9250828203905081811115613d0757613d06613caa565b5b92915050565b6000613d18826132be565b9150613d23836132be565b9250828201905080821115613d3b57613d3a613caa565b5b92915050565b7f4d6178204e4654206c696d697420657863656564656421000000000000000000600082015250565b6000613d77601783613217565b9150613d8282613d41565b602082019050919050565b60006020820190508181036000830152613da681613d6a565b9050919050565b6000604082019050613dc26000830184613353565b8181036020830152613dd381613d6a565b905092915050565b7f436f6e747261637420697320756e506175736520210000000000000000000000600082015250565b6000613e11601583613217565b9150613e1c82613ddb565b602082019050919050565b60006020820190508181036000830152613e4081613e04565b9050919050565b7f4e487b7100000000000000000000000000000000000000000000000000000000600052603260045260246000fd5b6000613e81826132be565b91507fffffffffffffffffffffffffffffffffffffffffffffffffffffffffffffffff8203613eb357613eb2613caa565b5b600182019050919050565b60008190508160005260206000209050919050565b60006020601f8301049050919050565b600082821b905092915050565b600060088302613f207fffffffffffffffffffffffffffffffffffffffffffffffffffffffffffffffff82613ee3565b613f2a8683613ee3565b95508019841693508086168417925050509392505050565b6000819050919050565b6000613f67613f62613f5d846132be565b613f42565b6132be565b9050919050565b6000819050919050565b613f8183613f4c565b613f95613f8d82613f6e565b848454613ef0565b825550505050565b600090565b613faa613f9d565b613fb5818484613f78565b505050565b5b81811015613fd957613fce600082613fa2565b600181019050613fbb565b5050565b601f82111561401e57613fef81613ebe565b613ff884613ed3565b81016020851015614007578190505b61401b61401385613ed3565b830182613fba565b50505b505050565b600082821c905092915050565b600061404160001984600802614023565b1980831691505092915050565b600061405a8383614030565b9150826002028217905092915050565b6140738261320c565b67ffffffffffffffff81111561408c5761408b6134d8565b5b61409682546139bd565b6140a1828285613fdd565b600060209050601f8311600181146140d457600084156140c2578287015190505b6140cc858261404e565b865550614134565b601f1984166140e286613ebe565b60005b8281101561410a578489015182556001820191506020850194506020810190506140e5565b868310156141275784890151614123601f891682614030565b8355505b6001600288020188555050505b505050505050565b7f4552433732313a20696e76616c696420746f6b656e2049440000000000000000600082015250565b6000614172601883613217565b915061417d8261413c565b602082019050919050565b600060208201905081810360008301526141a181614165565b9050919050565b7f4552433732313a2061646472657373207a65726f206973206e6f74206120766160008201527f6c6964206f776e65720000000000000000000000000000000000000000000000602082015250565b6000614204602983613217565b915061420f826141a8565b604082019050919050565b60006020820190508181036000830152614233816141f7565b9050919050565b7f436f6e74726163742069732073657420746f2050617573652021000000000000600082015250565b6000614270601a83613217565b915061427b8261423a565b602082019050919050565b6000602082019050818103600083015261429f81614263565b9050919050565b600081905092915050565b50565b60006142c16000836142a6565b91506142cc826142b1565b600082019050919050565b60006142e2826142b4565b9150819050919050565b7f596f7520617265206e6f7420696e207468652077686974656c69737420212100600082015250565b6000614322601f83613217565b915061432d826142ec565b602082019050919050565b6000602082019050818103600083015261435181614315565b9050919050565b600060408201905061436d6000830184613353565b818103602083015261437e81614315565b905092915050565b7f4d6178204e465420706572206164647265737320657863656564656400000000600082015250565b60006143bc601c83613217565b91506143c782614386565b602082019050919050565b600060208201905081810360008301526143eb816143af565b9050919050565b60006040820190506144076000830184613353565b8181036020830152614418816143af565b905092915050565b600061442b826132be565b9150614436836132be565b9250817fffffffffffffffffffffffffffffffffffffffffffffffffffffffffffffffff048311821515161561446f5761446e613caa565b5b828202905092915050565b7f696e73756666696369656e742066756e64730000000000000000000000000000600082015250565b60006144b0601283613217565b91506144bb8261447a565b602082019050919050565b600060208201905081810360008301526144df816144a3565b9050919050565b7f496e73756666696369656e742066756e64730000000000000000000000000000600082015250565b600061451c601283613217565b9150614527826144e6565b602082019050919050565b60006040820190506145476000830184613353565b81810360208301526145588161450f565b905092915050565b7f4552433732314d657461646174613a2055524920717565727920666f72206e6f60008201527f6e6578697374656e7420746f6b656e0000000000000000000000000000000000602082015250565b60006145bc602f83613217565b91506145c782614560565b604082019050919050565b600060208201905081810360008301526145eb816145af565b9050919050565b600081905092915050565b60006146088261320c565b61461281856145f2565b9350614622818560208601613228565b80840191505092915050565b6000815461463b816139bd565b61464581866145f2565b945060018216600081146146605760018114614675576146a8565b60ff19831686528115158202860193506146a8565b61467e85613ebe565b60005b838110156146a057815481890152600182019150602081019050614681565b838801955050505b50505092915050565b60006146bd82866145fd565b91506146c982856145fd565b91506146d5828461462e565b9150819050949350505050565b7f4f776e61626c653a206e6577206f776e657220697320746865207a65726f206160008201527f6464726573730000000000000000000000000000000000000000000000000000602082015250565b600061473e602683613217565b9150614749826146e2565b604082019050919050565b6000602082019050818103600083015261476d81614731565b9050919050565b7f4f776e61626c653a2063616c6c6572206973206e6f7420746865206f776e6572600082015250565b60006147aa602083613217565b91506147b582614774565b602082019050919050565b600060208201905081810360008301526147d98161479d565b9050919050565b7f4552433732313a207472616e736665722066726f6d20696e636f72726563742060008201527f6f776e6572000000000000000000000000000000000000000000000000000000602082015250565b600061483c602583613217565b9150614847826147e0565b604082019050919050565b6000602082019050818103600083015261486b8161482f565b9050919050565b7f4552433732313a207472616e7366657220746f20746865207a65726f2061646460008201527f7265737300000000000000000000000000000000000000000000000000000000602082015250565b60006148ce602483613217565b91506148d982614872565b604082019050919050565b600060208201905081810360008301526148fd816148c1565b9050919050565b60006040820190506149196000830185613353565b61492660208301846133e9565b9392505050565b7f4552433732313a20617070726f766520746f2063616c6c657200000000000000600082015250565b6000614963601983613217565b915061496e8261492d565b602082019050919050565b6000602082019050818103600083015261499281614956565b9050919050565b7f4552433732313a207472616e7366657220746f206e6f6e20455243373231526560008201527f63656976657220696d706c656d656e7465720000000000000000000000000000602082015250565b60006149f5603283613217565b9150614a0082614999565b604082019050919050565b60006020820190508181036000830152614a24816149e8565b9050919050565b7f4e487b7100000000000000000000000000000000000000000000000000000000600052601260045260246000fd5b6000614a65826132be565b9150614a70836132be565b925082614a8057614a7f614a2b565b5b828204905092915050565b6000614a96826132be565b9150614aa1836132be565b925082614ab157614ab0614a2b565b5b828206905092915050565b7f5061757361626c653a206e6f7420706175736564000000000000000000000000600082015250565b6000614af2601483613217565b9150614afd82614abc565b602082019050919050565b60006020820190508181036000830152614b2181614ae5565b9050919050565b7f5061757361626c653a2070617573656400000000000000000000000000000000600082015250565b6000614b5e601083613217565b9150614b6982614b28565b602082019050919050565b60006020820190508181036000830152614b8d81614b51565b9050919050565b600081519050919050565b600082825260208201905092915050565b6000614bbb82614b94565b614bc58185614b9f565b9350614bd5818560208601613228565b614bde81613252565b840191505092915050565b6000608082019050614bfe6000830187613353565b614c0b6020830186613353565b614c1860408301856133e9565b8181036060830152614c2a8184614bb0565b905095945050505050565b600081519050614c448161317d565b92915050565b600060208284031215614c6057614c5f613147565b5b6000614c6e84828501614c35565b91505092915050565b7f4552433732313a206d696e7420746f20746865207a65726f2061646472657373600082015250565b6000614cad602083613217565b9150614cb882614c77565b602082019050919050565b60006020820190508181036000830152614cdc81614ca0565b9050919050565b7f4552433732313a20746f6b656e20616c7265616479206d696e74656400000000600082015250565b6000614d19601c83613217565b9150614d2482614ce3565b602082019050919050565b60006020820190508181036000830152614d4881614d0c565b905091905056fea2646970667358221220dad59d1219ce8ec90b280fa0dc2e220d81fe7b18fd0cee3190af6546adef230964736f6c63430008100033",
  "immutableReferences": {},
  "source": "// contracts/PFPinatas.sol\n// SPDX-License-Identifier: MIT\npragma solidity ^0.8.1;\n\nimport \"@openzeppelin/contracts/utils/Counters.sol\";\nimport \"@openzeppelin/contracts/access/Ownable.sol\";\nimport \"@openzeppelin/contracts/utils/Strings.sol\";\nimport \"@openzeppelin/contracts/token/ERC721/ERC721.sol\";\nimport \"@openzeppelin/contracts/security/ReentrancyGuard.sol\";\nimport \"@openzeppelin/contracts/security/Pausable.sol\";\n\ncontract InsideMe is ERC721, Ownable, ReentrancyGuard,Pausable  {\n\n//used to increment how many NFT's have been minted\n  using Counters for Counters.Counter;\n  Counters.Counter private supply;\n\n/*\n* NFT IPFS configuration \n*/\n  //ipfs://CDI/\n  string public uriPrefix = \"\";\n  //files extension from baseExtension location\n  string public uriSuffix = \".json\";\n  //ipfs://CDI/hidden.json\n  string public hiddenMetadataUri=\"\";\n\n/*\n*END IPFS Configuration\n*/\n\n/*\n* NFT Costs and minting limits Configuration  \n*/\n//Cost per mint!\n  uint256 public cost = 1000000000000000000;\n//How many NFT's you can mint in total\n  uint256 public maxSupply = 10000;\n//Set NFT minting amount per transaction\n  uint256 public maxMintAmountPerTx = 50;\n//Set limit per address to mint  \n  uint256 public nftPerAddressLimit = 100;\n//Limit for maximum NFT's you can mint\n  uint256 public limitSupply=0;\n/*\n* END NFT Costs and minting limits Configuration  \n*/\n\n//List of events\nevent contractIsPaused(string _paused);\nevent contractIsUnPaused(string _unPaused);\nevent itHasMinted(address _adr, uint _value);\nevent invalidMindAmount(address _adr, string _message);\nevent mintLimitExceeded(address _adr, string _message);\nevent notInTheWhiteList(address _adr, string _message);\nevent maxMintAmountReached(address _adr, string _message);\nevent insufficientFunds(address _adr, string _event);\n\n//Setting up the mintig properties  \n  bool public onlyWhitelisted = false;\n  \n/*\n* Presale/WhiteList/AirDrop Configuration\n*/\n  mapping(address => bool) public whitelisted;\n  mapping(address => uint256) public addressMintedBalance;\n\n/*\n* EDND Presale/WhiteList/AirDrop Configuration\n*/\n//Setting up the contract state when deployed\n  constructor(\n    string memory _name,\n    string memory _symbol,\n    string memory _initBaseURI\n  ) ERC721(_name, _symbol) {\n    addressMintedBalance[msg.sender]=0;\n    setBaseURI(_initBaseURI);\n    pause();\n  }\n\n/*\n* Rules of the contract\n*/\n    modifier mintCompliance(uint256 _mintAmount) {\n       require(!paused(), \"The contract is paused\");\n\n       require(_mintAmount > 0 && _mintAmount <= maxMintAmountPerTx , \"Invalid mint amount!\");\n      if(!(_mintAmount > 0 && _mintAmount <= maxMintAmountPerTx)){\n        emit invalidMindAmount(msg.sender, \"Invalid mint amount!\");\n      }\n\n      require(supply.current() + _mintAmount <= maxSupply - limitSupply, \"Max NFT limit exceeded!\");\n      if(!(supply.current() + _mintAmount <= maxSupply - limitSupply)){\n        emit mintLimitExceeded(msg.sender, \"Max NFT limit exceeded!\");\n      }  \n    _;\n  }\n/*\n* EMD Rules of the contract\n*/\n\n/*\n* This is the minting function\n*/\nfunction mint(uint256 _mintAmount) public payable mintCompliance(_mintAmount) {\n\n    if (msg.sender != owner()) {\n        if(onlyWhitelisted == true) {\n            require(isInWhiteList(msg.sender)==true,\"You are not in the whitelist !!\");\n            if(!isInWhiteList(msg.sender)==true){\n              emit notInTheWhiteList(msg.sender, \"You are not in the whitelist !!\");\n            }\n            uint256 ownerMintedCount = addressMintedBalance[msg.sender];\n            require(ownerMintedCount + _mintAmount <= nftPerAddressLimit, \"Max NFT per address exceeded\");\n            if(!(ownerMintedCount + _mintAmount <= nftPerAddressLimit)){\n              emit maxMintAmountReached(msg.sender, \"Max NFT per address exceeded\");\n            }\n        }\n        require(msg.value >= cost * _mintAmount, \"insufficient funds\");\n        if(!(msg.value >= cost * _mintAmount)){\n          emit insufficientFunds(msg.sender, \"Insufficient funds\");\n        }\n    }\n\n    _mintLoop(msg.sender, _mintAmount);\n  }\n\nfunction _mintLoop(address _receiver, uint256 _mintAmount) internal {\n  for (uint256 i = 0; i < _mintAmount; i++) {\n    supply.increment();\n    _safeMint(_receiver, supply.current());\n  }\n  emit itHasMinted(_receiver, _mintAmount);\n}\n \n  function _baseURI() internal view virtual override returns (string memory) {\n    return uriPrefix;\n  }\n\n /*\n    @_mintAmount -> amount you want to mint \n    @_receiver   -> wallet addres you want to send it to\n    This function is used for bonuses, airdrops or prizes \n */\n function mintForOneAddress(uint256 _mintAmount, address _receiver) public mintCompliance(_mintAmount) onlyOwner {\n    _mintLoop(_receiver, _mintAmount);\n  }\n\n/*\n    @_mintAmount -> amount you want to mint\n    @_receivers[] -> wallet address you want to send the minted NFT's: for each address/amount\n*/\n function mintForMultipleAddresses(uint256 _mintAmount, address[] memory _receivers) public mintCompliance(_mintAmount) onlyOwner {\n      for (uint256 i=0;i< _receivers.length;i++)\n        _mintLoop(_receivers[i], _mintAmount);\n  }\n \n  function _mintSingleNFT() private {\n       supply.increment();\n      _safeMint(msg.sender, supply.current());\n  } \n\n/*\n  @_addr -> adding 1 address to the whiteList\n*/\n  function addToWhiteList(address _addr) public onlyOwner {\n      whitelisted[_addr] = true;\n  }\n/*\n  @_addrsp[] -> adding multiple addresses to the whiteList\n*/\n   function addAMultipleAddressesToWhiteList(address[] memory _addrs) public onlyOwner {\n      \n      for (uint256 i=0;i< _addrs.length;i++){\n            whitelisted[_addrs[i]] = true;\n          }  \n  }\n\n/*\n  Setting whiteList to true\n*/\n  function whiteListOn() public onlyOwner{\n    onlyWhitelisted=true;\n  }\n  /*\n  Setting whiteList to false\n*/\n  function whiteListOff() public onlyOwner{\n    onlyWhitelisted=false;\n  }\n/*\n  check if the contract is paused\n*/\n    function isItpaused() public view virtual returns (bool) {\n        return paused();\n    }\n\n/*\n  @_addr -> check if address exists in the WhiteList private\n*/\n  function isInWhiteList(address _addr) private view returns (bool) {\n            return whitelisted[_addr]  || _addr == owner();\n  }\n\n/*\n  @_addr -> calles the private function which can access the mapping array and checks if address exists\n*/\n  function checkAddressIsWhiteListed(address _addr) public view returns(bool){\n      return isInWhiteList(_addr);\n  }\n\n  function getNFTBalance() public view returns (uint256) {\n      return supply.current();\n  }\n\n      function getBalance() public view onlyOwner returns(uint256) {\n      return address(this).balance; \n    }\n\n    function getMyNFTBalance() public view returns(uint256){\n      return addressMintedBalance[msg.sender];\n    }\n\n    function getNFTBalanceByAddress(address _addr) public view returns(uint256){\n      return addressMintedBalance[_addr];\n    }\n\n  function tokenURI(uint256 _tokenId)\n    public\n    view\n    virtual\n    override\n    returns (string memory)\n  {\n    require(\n      _exists(_tokenId),\n      \"ERC721Metadata: URI query for nonexistent token\"\n    );\n    \n    string memory currentBaseURI = _baseURI();\n    return bytes(currentBaseURI).length > 0\n        ? string(abi.encodePacked(currentBaseURI, Strings.toString(_tokenId), uriSuffix))\n        : \"\";\n  }\n\n    function pause() public onlyOwner {\n        _pause();\n        emit contractIsPaused(\"Contract is set to Pause !\");\n    }\n\n    function unpause() public onlyOwner {\n        _unpause();\n        emit contractIsUnPaused(\"Contract is unPause !\");\n    }\n\n  /*\n   @_limit Set's the minting limit per address\n  */\n  function setNftPerAddressLimit(uint256 _limit) public onlyOwner {\n    nftPerAddressLimit = _limit;\n  }\n\n  function setMaxMintAmountPerTx(uint256 _limit) public onlyOwner {\n      maxMintAmountPerTx = _limit;\n  }\n\n  /*\n    @_newCost Set's the cost's per 1 NFT\n  */\n  function setCost(uint256 _newCost) public onlyOwner {\n    cost = _newCost;\n  }\n  /*\n    @_newMaxMintAmount Set's the minting limit from 1000 NFT's only newMaxMintAmount are mintable\n  */\n  function setmaxMintAmount(uint256 _newMaxMintAmount) public onlyOwner {\n    limitSupply = _newMaxMintAmount;\n  }\n/*\n  @_newBaseURI Set's the address for uriPrefix -> //ipfs://CDI/\n*/\n  function setBaseURI(string memory _newBaseURI) public onlyOwner {\n    uriPrefix = _newBaseURI;\n  }\n/*\n  @_newBaaseExtension Set's the base extension which should be .json\n*/\n  function setBaseExtension(string memory _newBaseExtension) public onlyOwner {\n    uriSuffix = _newBaseExtension;\n  }\n \n //withdraw everything to the owners wallet\n  function withdrawAll() public payable onlyOwner {\n\n    (bool os, ) = payable(owner()).call{value: address(this).balance}(\"\");\n    require(os);\n  }\n\n    fallback() external payable {}\n    receive() external payable {}\n}",
  "sourcePath": "/home/danisev/Polygon/test_project/project_athletes/contracts/Athlete.sol",
  "compiler": {
    "name": "solc",
    "version": "0.8.16+commit.07a7930e.Emscripten.clang"
  },
  "schemaVersion": "3.4.9",
  "updatedAt": "2022-11-06T15:14:33.549Z",
  "devdoc": {
    "kind": "dev",
    "methods": {
      "approve(address,uint256)": {
        "details": "See {IERC721-approve}."
      },
      "balanceOf(address)": {
        "details": "See {IERC721-balanceOf}."
      },
      "getApproved(uint256)": {
        "details": "See {IERC721-getApproved}."
      },
      "isApprovedForAll(address,address)": {
        "details": "See {IERC721-isApprovedForAll}."
      },
      "name()": {
        "details": "See {IERC721Metadata-name}."
      },
      "owner()": {
        "details": "Returns the address of the current owner."
      },
      "ownerOf(uint256)": {
        "details": "See {IERC721-ownerOf}."
      },
      "paused()": {
        "details": "Returns true if the contract is paused, and false otherwise."
      },
      "renounceOwnership()": {
        "details": "Leaves the contract without owner. It will not be possible to call `onlyOwner` functions anymore. Can only be called by the current owner. NOTE: Renouncing ownership will leave the contract without an owner, thereby removing any functionality that is only available to the owner."
      },
      "safeTransferFrom(address,address,uint256)": {
        "details": "See {IERC721-safeTransferFrom}."
      },
      "safeTransferFrom(address,address,uint256,bytes)": {
        "details": "See {IERC721-safeTransferFrom}."
      },
      "setApprovalForAll(address,bool)": {
        "details": "See {IERC721-setApprovalForAll}."
      },
      "supportsInterface(bytes4)": {
        "details": "See {IERC165-supportsInterface}."
      },
      "symbol()": {
        "details": "See {IERC721Metadata-symbol}."
      },
      "transferFrom(address,address,uint256)": {
        "details": "See {IERC721-transferFrom}."
      },
      "transferOwnership(address)": {
        "details": "Transfers ownership of the contract to a new account (`newOwner`). Can only be called by the current owner."
      }
    },
    "version": 1
  },
  "userdoc": {
    "kind": "user",
    "methods": {},
    "version": 1
  }
}